{
  "abi": [
    {
      "type": "constructor",
      "inputs": [
        {
          "name": "_usdt",
          "type": "address",
          "internalType": "address"
        },
        {
          "name": "_priceOracle",
          "type": "address",
          "internalType": "address"
        }
      ],
      "stateMutability": "nonpayable"
    },
    {
      "type": "receive",
      "stateMutability": "payable"
    },
    {
      "type": "function",
      "name": "BASIS_POINTS",
      "inputs": [],
      "outputs": [
        {
          "name": "",
          "type": "uint256",
          "internalType": "uint256"
        }
      ],
      "stateMutability": "view"
    },
    {
      "type": "function",
      "name": "LIQUIDATION_THRESHOLD",
      "inputs": [],
      "outputs": [
        {
          "name": "",
          "type": "uint256",
          "internalType": "uint256"
        }
      ],
      "stateMutability": "view"
    },
    {
      "type": "function",
      "name": "LIQUIDATOR_REWARD",
      "inputs": [],
      "outputs": [
        {
          "name": "",
          "type": "uint256",
          "internalType": "uint256"
        }
      ],
      "stateMutability": "view"
    },
    {
      "type": "function",
      "name": "PERCENTAGE_BASE",
      "inputs": [],
      "outputs": [
        {
          "name": "",
          "type": "uint256",
          "internalType": "uint256"
        }
      ],
      "stateMutability": "view"
    },
    {
      "type": "function",
      "name": "PRICE_STALENESS_THRESHOLD",
      "inputs": [],
      "outputs": [
        {
          "name": "",
          "type": "uint256",
          "internalType": "uint256"
        }
      ],
      "stateMutability": "view"
    },
    {
      "type": "function",
      "name": "canLiquidate",
      "inputs": [
        {
          "name": "loanId",
          "type": "uint256",
          "internalType": "uint256"
        }
      ],
      "outputs": [
        {
          "name": "",
          "type": "bool",
          "internalType": "bool"
        }
      ],
      "stateMutability": "view"
    },
    {
      "type": "function",
      "name": "collaterals",
      "inputs": [
        {
          "name": "",
          "type": "uint256",
          "internalType": "uint256"
        }
      ],
      "outputs": [
        {
          "name": "collateralType",
          "type": "uint8",
          "internalType": "enum CollateralManager.CollateralType"
        },
        {
          "name": "amount",
          "type": "uint256",
          "internalType": "uint256"
        },
        {
          "name": "loanAmount",
          "type": "uint256",
          "internalType": "uint256"
        },
        {
          "name": "lockedAt",
          "type": "uint256",
          "internalType": "uint256"
        },
        {
          "name": "isActive",
          "type": "bool",
          "internalType": "bool"
        }
      ],
      "stateMutability": "view"
    },
    {
      "type": "function",
      "name": "getCollateralValue",
      "inputs": [
        {
          "name": "loanId",
          "type": "uint256",
          "internalType": "uint256"
        }
      ],
      "outputs": [
        {
          "name": "",
          "type": "uint256",
          "internalType": "uint256"
        }
      ],
      "stateMutability": "view"
    },
    {
      "type": "function",
      "name": "getHealthRatio",
      "inputs": [
        {
          "name": "loanId",
          "type": "uint256",
          "internalType": "uint256"
        }
      ],
      "outputs": [
        {
          "name": "",
          "type": "uint256",
          "internalType": "uint256"
        }
      ],
      "stateMutability": "view"
    },
    {
      "type": "function",
      "name": "liquidate",
      "inputs": [
        {
          "name": "loanId",
          "type": "uint256",
          "internalType": "uint256"
        },
        {
          "name": "borrower",
          "type": "address",
          "internalType": "address"
        }
      ],
      "outputs": [],
      "stateMutability": "nonpayable"
    },
    {
      "type": "function",
      "name": "lockEthCollateral",
      "inputs": [
        {
          "name": "loanId",
          "type": "uint256",
          "internalType": "uint256"
        },
        {
          "name": "borrower",
          "type": "address",
          "internalType": "address"
        },
        {
          "name": "loanAmount",
          "type": "uint256",
          "internalType": "uint256"
        }
      ],
      "outputs": [],
      "stateMutability": "payable"
    },
    {
      "type": "function",
      "name": "lockUsdtCollateral",
      "inputs": [
        {
          "name": "loanId",
          "type": "uint256",
          "internalType": "uint256"
        },
        {
          "name": "borrower",
          "type": "address",
          "internalType": "address"
        },
        {
          "name": "collateralAmount",
          "type": "uint256",
          "internalType": "uint256"
        },
        {
          "name": "loanAmount",
          "type": "uint256",
          "internalType": "uint256"
        }
      ],
      "outputs": [],
      "stateMutability": "nonpayable"
    },
    {
      "type": "function",
      "name": "owner",
      "inputs": [],
      "outputs": [
        {
          "name": "",
          "type": "address",
          "internalType": "address"
        }
      ],
      "stateMutability": "view"
    },
    {
      "type": "function",
      "name": "pause",
      "inputs": [],
      "outputs": [],
      "stateMutability": "nonpayable"
    },
    {
      "type": "function",
      "name": "paused",
      "inputs": [],
      "outputs": [
        {
          "name": "",
          "type": "bool",
          "internalType": "bool"
        }
      ],
      "stateMutability": "view"
    },
    {
      "type": "function",
      "name": "priceOracle",
      "inputs": [],
      "outputs": [
        {
          "name": "",
          "type": "address",
          "internalType": "contract IPriceOracle"
        }
      ],
      "stateMutability": "view"
    },
    {
      "type": "function",
      "name": "releaseCollateral",
      "inputs": [
        {
          "name": "loanId",
          "type": "uint256",
          "internalType": "uint256"
        },
        {
          "name": "borrower",
          "type": "address",
          "internalType": "address"
        }
      ],
      "outputs": [],
      "stateMutability": "nonpayable"
    },
    {
      "type": "function",
      "name": "renounceOwnership",
      "inputs": [],
      "outputs": [],
      "stateMutability": "nonpayable"
    },
    {
      "type": "function",
      "name": "totalEthCollateral",
      "inputs": [
        {
          "name": "",
          "type": "address",
          "internalType": "address"
        }
      ],
      "outputs": [
        {
          "name": "",
          "type": "uint256",
          "internalType": "uint256"
        }
      ],
      "stateMutability": "view"
    },
    {
      "type": "function",
      "name": "totalUsdtCollateral",
      "inputs": [
        {
          "name": "",
          "type": "address",
          "internalType": "address"
        }
      ],
      "outputs": [
        {
          "name": "",
          "type": "uint256",
          "internalType": "uint256"
        }
      ],
      "stateMutability": "view"
    },
    {
      "type": "function",
      "name": "transferOwnership",
      "inputs": [
        {
          "name": "newOwner",
          "type": "address",
          "internalType": "address"
        }
      ],
      "outputs": [],
      "stateMutability": "nonpayable"
    },
    {
      "type": "function",
      "name": "unpause",
      "inputs": [],
      "outputs": [],
      "stateMutability": "nonpayable"
    },
    {
      "type": "function",
      "name": "updatePriceOracle",
      "inputs": [
        {
          "name": "newOracle",
          "type": "address",
          "internalType": "address"
        }
      ],
      "outputs": [],
      "stateMutability": "nonpayable"
    },
    {
      "type": "function",
      "name": "usdt",
      "inputs": [],
      "outputs": [
        {
          "name": "",
          "type": "address",
          "internalType": "contract IERC20"
        }
      ],
      "stateMutability": "view"
    },
    {
      "type": "event",
      "name": "CollateralLiquidated",
      "inputs": [
        {
          "name": "loanId",
          "type": "uint256",
          "indexed": true,
          "internalType": "uint256"
        },
        {
          "name": "liquidator",
          "type": "address",
          "indexed": true,
          "internalType": "address"
        },
        {
          "name": "borrower",
          "type": "address",
          "indexed": true,
          "internalType": "address"
        },
        {
          "name": "collateralAmount",
          "type": "uint256",
          "indexed": false,
          "internalType": "uint256"
        },
        {
          "name": "liquidatorReward",
          "type": "uint256",
          "indexed": false,
          "internalType": "uint256"
        }
      ],
      "anonymous": false
    },
    {
      "type": "event",
      "name": "CollateralLocked",
      "inputs": [
        {
          "name": "loanId",
          "type": "uint256",
          "indexed": true,
          "internalType": "uint256"
        },
        {
          "name": "borrower",
          "type": "address",
          "indexed": true,
          "internalType": "address"
        },
        {
          "name": "collateralType",
          "type": "uint8",
          "indexed": false,
          "internalType": "enum CollateralManager.CollateralType"
        },
        {
          "name": "amount",
          "type": "uint256",
          "indexed": false,
          "internalType": "uint256"
        },
        {
          "name": "loanAmount",
          "type": "uint256",
          "indexed": false,
          "internalType": "uint256"
        }
      ],
      "anonymous": false
    },
    {
      "type": "event",
      "name": "CollateralReleased",
      "inputs": [
        {
          "name": "loanId",
          "type": "uint256",
          "indexed": true,
          "internalType": "uint256"
        },
        {
          "name": "borrower",
          "type": "address",
          "indexed": true,
          "internalType": "address"
        },
        {
          "name": "amount",
          "type": "uint256",
          "indexed": false,
          "internalType": "uint256"
        }
      ],
      "anonymous": false
    },
    {
      "type": "event",
      "name": "OwnershipTransferred",
      "inputs": [
        {
          "name": "previousOwner",
          "type": "address",
          "indexed": true,
          "internalType": "address"
        },
        {
          "name": "newOwner",
          "type": "address",
          "indexed": true,
          "internalType": "address"
        }
      ],
      "anonymous": false
    },
    {
      "type": "event",
      "name": "Paused",
      "inputs": [
        {
          "name": "account",
          "type": "address",
          "indexed": false,
          "internalType": "address"
        }
      ],
      "anonymous": false
    },
    {
      "type": "event",
      "name": "PriceOracleUpdated",
      "inputs": [
        {
          "name": "oldOracle",
          "type": "address",
          "indexed": true,
          "internalType": "address"
        },
        {
          "name": "newOracle",
          "type": "address",
          "indexed": true,
          "internalType": "address"
        }
      ],
      "anonymous": false
    },
    {
      "type": "event",
      "name": "Unpaused",
      "inputs": [
        {
          "name": "account",
          "type": "address",
          "indexed": false,
          "internalType": "address"
        }
      ],
      "anonymous": false
    },
    {
      "type": "error",
      "name": "CollateralAlreadyLocked",
      "inputs": []
    },
    {
      "type": "error",
      "name": "CollateralNotActive",
      "inputs": []
    },
    {
      "type": "error",
      "name": "CollateralTransferFailed",
      "inputs": []
    },
    {
      "type": "error",
      "name": "EnforcedPause",
      "inputs": []
    },
    {
      "type": "error",
      "name": "ExpectedPause",
      "inputs": []
    },
    {
      "type": "error",
      "name": "InsufficientEthSent",
      "inputs": []
    },
    {
      "type": "error",
      "name": "InvalidCollateralAmount",
      "inputs": []
    },
    {
      "type": "error",
      "name": "InvalidLoanAmount",
      "inputs": []
    },
    {
      "type": "error",
      "name": "InvalidPriceOracle",
      "inputs": []
    },
    {
      "type": "error",
      "name": "LoanNotLiquidatable",
      "inputs": []
    },
    {
      "type": "error",
      "name": "OwnableInvalidOwner",
      "inputs": [
        {
          "name": "owner",
          "type": "address",
          "internalType": "address"
        }
      ]
    },
    {
      "type": "error",
      "name": "OwnableUnauthorizedAccount",
      "inputs": [
        {
          "name": "account",
          "type": "address",
          "internalType": "address"
        }
      ]
    },
    {
      "type": "error",
      "name": "ReentrancyGuardReentrantCall",
      "inputs": []
    },
    {
      "type": "error",
      "name": "StalePriceData",
      "inputs": []
    }
  ],
  "bytecode": {
    "object": "0x60a060405234801561000f575f5ffd5b50604051612c6a380380612c6a83398181016040528101906100319190610340565b3360016100506100456101ed60201b60201c565b61021660201b60201c565b5f01819055505f73ffffffffffffffffffffffffffffffffffffffff168173ffffffffffffffffffffffffffffffffffffffff16036100c6575f6040517f1e4fbdf70000000000000000000000000000000000000000000000000000000081526004016100bd919061038d565b60405180910390fd5b6100d58161021f60201b60201c565b505f73ffffffffffffffffffffffffffffffffffffffff168273ffffffffffffffffffffffffffffffffffffffff16148061013b57505f73ffffffffffffffffffffffffffffffffffffffff168173ffffffffffffffffffffffffffffffffffffffff16145b15610172576040517f6077d21b00000000000000000000000000000000000000000000000000000000815260040160405180910390fd5b8173ffffffffffffffffffffffffffffffffffffffff1660808173ffffffffffffffffffffffffffffffffffffffff16815250508060015f6101000a81548173ffffffffffffffffffffffffffffffffffffffff021916908373ffffffffffffffffffffffffffffffffffffffff16021790555050506103a6565b5f7f9b779b17422d0df92223018b32b4d1fa46e071723d6817e2486d003becc55f005f1b905090565b5f819050919050565b5f5f60019054906101000a900473ffffffffffffffffffffffffffffffffffffffff169050815f60016101000a81548173ffffffffffffffffffffffffffffffffffffffff021916908373ffffffffffffffffffffffffffffffffffffffff1602179055508173ffffffffffffffffffffffffffffffffffffffff168173ffffffffffffffffffffffffffffffffffffffff167f8be0079c531659141344cd1fd0a4f28419497f9722a3daafe3b4186f6b6457e060405160405180910390a35050565b5f5ffd5b5f73ffffffffffffffffffffffffffffffffffffffff82169050919050565b5f61030f826102e6565b9050919050565b61031f81610305565b8114610329575f5ffd5b50565b5f8151905061033a81610316565b92915050565b5f5f60408385031215610356576103556102e2565b5b5f6103638582860161032c565b92505060206103748582860161032c565b9150509250929050565b61038781610305565b82525050565b5f6020820190506103a05f83018461037e565b92915050565b6080516128906103da5f395f81816105d60152818161095c01528181610dd401528181610ea9015261183401526128905ff3fe60806040526004361061014e575f3560e01c806382fee08f116100b557806395a4f2461161006e57806395a4f246146104495780639df411ee14610471578063cc1ee448146104ad578063e1f1c4a7146104e9578063f25b9caa14610513578063f2fde38b1461053d57610155565b806382fee08f1461033d5780638456cb591461037957806387c139431461038f5780638d918285146103b95780638da5cb5b146103f557806390a8ae9b1461041f57610155565b80635c975abb116101075780635c975abb146102535780635fae8b3d1461027d57806367641cab146102a5578063715018a6146102e157806375070174146102f75780637f3020c11461031357610155565b806324c1173b146101595780632630c12f146101995780632f48ab7d146101c357806339d1fc82146101ed5780633f4ba83a14610215578063532c6b371461022b57610155565b3661015557005b5f5ffd5b348015610164575f5ffd5b5061017f600480360381019061017a9190611f6c565b610565565b604051610190959493929190612033565b60405180910390f35b3480156101a4575f5ffd5b506101ad6105af565b6040516101ba91906120fe565b60405180910390f35b3480156101ce575f5ffd5b506101d76105d4565b6040516101e49190612137565b60405180910390f35b3480156101f8575f5ffd5b50610213600480360381019061020e919061218b565b6105f8565b005b348015610220575f5ffd5b50610229610728565b005b348015610236575f5ffd5b50610251600480360381019061024c91906121b6565b61073a565b005b34801561025e575f5ffd5b50610267610a8e565b60405161027491906121f4565b60405180910390f35b348015610288575f5ffd5b506102a3600480360381019061029e91906121b6565b610aa2565b005b3480156102b0575f5ffd5b506102cb60048036038101906102c69190611f6c565b610fff565b6040516102d8919061220d565b60405180910390f35b3480156102ec575f5ffd5b506102f561125f565b005b610311600480360381019061030c9190612226565b611272565b005b34801561031e575f5ffd5b506103276114b9565b604051610334919061220d565b60405180910390f35b348015610348575f5ffd5b50610363600480360381019061035e9190611f6c565b6114be565b604051610370919061220d565b60405180910390f35b348015610384575f5ffd5b5061038d6116fe565b005b34801561039a575f5ffd5b506103a3611710565b6040516103b0919061220d565b60405180910390f35b3480156103c4575f5ffd5b506103df60048036038101906103da919061218b565b611715565b6040516103ec919061220d565b60405180910390f35b348015610400575f5ffd5b5061040961172a565b6040516104169190612285565b60405180910390f35b34801561042a575f5ffd5b50610433611752565b604051610440919061220d565b60405180910390f35b348015610454575f5ffd5b5061046f600480360381019061046a919061229e565b611757565b005b34801561047c575f5ffd5b5061049760048036038101906104929190611f6c565b611a78565b6040516104a491906121f4565b60405180910390f35b3480156104b8575f5ffd5b506104d360048036038101906104ce919061218b565b611b32565b6040516104e0919061220d565b60405180910390f35b3480156104f4575f5ffd5b506104fd611b47565b60405161050a919061220d565b60405180910390f35b34801561051e575f5ffd5b50610527611b4d565b604051610534919061220d565b60405180910390f35b348015610548575f5ffd5b50610563600480360381019061055e919061218b565b611b53565b005b6002602052805f5260405f205f91509050805f015f9054906101000a900460ff1690806001015490806002015490806003015490806004015f9054906101000a900460ff16905085565b60015f9054906101000a900473ffffffffffffffffffffffffffffffffffffffff1681565b7f000000000000000000000000000000000000000000000000000000000000000081565b610600611bd7565b5f73ffffffffffffffffffffffffffffffffffffffff168173ffffffffffffffffffffffffffffffffffffffff1603610665576040517f6077d21b00000000000000000000000000000000000000000000000000000000815260040160405180910390fd5b5f60015f9054906101000a900473ffffffffffffffffffffffffffffffffffffffff1690508160015f6101000a81548173ffffffffffffffffffffffffffffffffffffffff021916908373ffffffffffffffffffffffffffffffffffffffff1602179055508173ffffffffffffffffffffffffffffffffffffffff168173ffffffffffffffffffffffffffffffffffffffff167f56b5f80d8cac1479698aa7d01605fd6111e90b15fc4d2b377417f46034876cbd60405160405180910390a35050565b610730611bd7565b610738611c5e565b565b610742611cbe565b61074a611ce0565b610752611bd7565b5f60025f8481526020019081526020015f209050806004015f9054906101000a900460ff166107ad576040517fb4da1e3700000000000000000000000000000000000000000000000000000000815260040160405180910390fd5b5f816001015490505f825f015f9054906101000a900460ff1690505f836004015f6101000a81548160ff0219169083151502179055505f60018111156107f6576107f5611f97565b5b81600181111561080957610808611f97565b5b03610906578160035f8673ffffffffffffffffffffffffffffffffffffffff1673ffffffffffffffffffffffffffffffffffffffff1681526020019081526020015f205f82825461085a919061232f565b925050819055505f8473ffffffffffffffffffffffffffffffffffffffff16836040516108869061238f565b5f6040518083038185875af1925050503d805f81146108c0576040519150601f19603f3d011682016040523d82523d5f602084013e6108c5565b606091505b5050905080610900576040517f4161287400000000000000000000000000000000000000000000000000000000815260040160405180910390fd5b50610a30565b8160045f8673ffffffffffffffffffffffffffffffffffffffff1673ffffffffffffffffffffffffffffffffffffffff1681526020019081526020015f205f828254610952919061232f565b925050819055505f7f000000000000000000000000000000000000000000000000000000000000000073ffffffffffffffffffffffffffffffffffffffff1663a9059cbb86856040518363ffffffff1660e01b81526004016109b59291906123a3565b6020604051808303815f875af11580156109d1573d5f5f3e3d5ffd5b505050506040513d601f19601f820116820180604052508101906109f591906123f4565b905080610a2e576040517f4161287400000000000000000000000000000000000000000000000000000000815260040160405180910390fd5b505b8373ffffffffffffffffffffffffffffffffffffffff16857f757b323b5139c5e30fe0a1c4b13e38dece5aad9273138c1e3d1ed9191c6e73b284604051610a77919061220d565b60405180910390a3505050610a8a611d21565b5050565b5f5f5f9054906101000a900460ff16905090565b610aaa611cbe565b610ab2611ce0565b5f60025f8481526020019081526020015f209050806004015f9054906101000a900460ff16610b0d576040517fb4da1e3700000000000000000000000000000000000000000000000000000000815260040160405180910390fd5b5f610b1784610fff565b905060788110610b53576040517feff4a02300000000000000000000000000000000000000000000000000000000815260040160405180910390fd5b5f826001015490505f835f015f9054906101000a900460ff1690505f6064600584610b7e919061241f565b610b88919061248d565b90505f8184610b97919061232f565b90505f866004015f6101000a81548160ff0219169083151502179055505f6001811115610bc757610bc6611f97565b5b836001811115610bda57610bd9611f97565b5b03610d7e578360035f8973ffffffffffffffffffffffffffffffffffffffff1673ffffffffffffffffffffffffffffffffffffffff1681526020019081526020015f205f828254610c2b919061232f565b925050819055505f3373ffffffffffffffffffffffffffffffffffffffff1683604051610c579061238f565b5f6040518083038185875af1925050503d805f8114610c91576040519150601f19603f3d011682016040523d82523d5f602084013e610c96565b606091505b5050905080610cd1576040517f4161287400000000000000000000000000000000000000000000000000000000815260040160405180910390fd5b5f610cda61172a565b73ffffffffffffffffffffffffffffffffffffffff1683604051610cfd9061238f565b5f6040518083038185875af1925050503d805f8114610d37576040519150601f19603f3d011682016040523d82523d5f602084013e610d3c565b606091505b5050905080610d77576040517f4161287400000000000000000000000000000000000000000000000000000000815260040160405180910390fd5b5050610f85565b8360045f8973ffffffffffffffffffffffffffffffffffffffff1673ffffffffffffffffffffffffffffffffffffffff1681526020019081526020015f205f828254610dca919061232f565b925050819055505f7f000000000000000000000000000000000000000000000000000000000000000073ffffffffffffffffffffffffffffffffffffffff1663a9059cbb33856040518363ffffffff1660e01b8152600401610e2d9291906123a3565b6020604051808303815f875af1158015610e49573d5f5f3e3d5ffd5b505050506040513d601f19601f82011682018060405250810190610e6d91906123f4565b905080610ea6576040517f4161287400000000000000000000000000000000000000000000000000000000815260040160405180910390fd5b5f7f000000000000000000000000000000000000000000000000000000000000000073ffffffffffffffffffffffffffffffffffffffff1663a9059cbb610eeb61172a565b856040518363ffffffff1660e01b8152600401610f099291906123a3565b6020604051808303815f875af1158015610f25573d5f5f3e3d5ffd5b505050506040513d601f19601f82011682018060405250810190610f4991906123f4565b905080610f82576040517f4161287400000000000000000000000000000000000000000000000000000000815260040160405180910390fd5b50505b8673ffffffffffffffffffffffffffffffffffffffff163373ffffffffffffffffffffffffffffffffffffffff16897fbf280c823ae6a292052c3abcd2eb782ac624f2e40d72d065e5c0f33d3ac698f48786604051610fe59291906124bd565b60405180910390a4505050505050610ffb611d21565b5050565b5f5f60025f8481526020019081526020015f206040518060a00160405290815f82015f9054906101000a900460ff1660018111156110405761103f611f97565b5b600181111561105257611051611f97565b5b8152602001600182015481526020016002820154815260200160038201548152602001600482015f9054906101000a900460ff161515151581525050905080608001516110a2575f91505061125a565b5f5f60018111156110b6576110b5611f97565b5b825f015160018111156110cc576110cb611f97565b5b03611231575f5f5f60015f9054906101000a900473ffffffffffffffffffffffffffffffffffffffff1673ffffffffffffffffffffffffffffffffffffffff16638e15f4736040518163ffffffff1660e01b8152600401606060405180830381865afa15801561113e573d5f5f3e3d5ffd5b505050506040513d601f19601f820116820180604052508101906111629190612561565b925092509250610e108142611177919061232f565b11156111af576040517f355e186c00000000000000000000000000000000000000000000000000000000815260040160405180910390fd5b5f83136111e8576040517f6077d21b00000000000000000000000000000000000000000000000000000000815260040160405180910390fd5b60068260126111f791906125b1565b61120191906125e5565b600a61120d9190612748565b83866020015161121d919061241f565b611227919061248d565b9350505050611239565b816020015190505b816040015160648261124b919061241f565b611255919061248d565b925050505b919050565b611267611bd7565b6112705f611d3b565b565b61127a611cbe565b611282611ce0565b5f34036112bb576040517ffbd85bc300000000000000000000000000000000000000000000000000000000815260040160405180910390fd5b5f81036112f4576040517f5697666100000000000000000000000000000000000000000000000000000000815260040160405180910390fd5b60025f8481526020019081526020015f206004015f9054906101000a900460ff161561134c576040517f89e56b8000000000000000000000000000000000000000000000000000000000815260040160405180910390fd5b6040518060a001604052805f600181111561136a57611369611f97565b5b81526020013481526020018281526020014281526020016001151581525060025f8581526020019081526020015f205f820151815f015f6101000a81548160ff021916908360018111156113c1576113c0611f97565b5b02179055506020820151816001015560408201518160020155606082015181600301556080820151816004015f6101000a81548160ff0219169083151502179055509050503460035f8473ffffffffffffffffffffffffffffffffffffffff1673ffffffffffffffffffffffffffffffffffffffff1681526020019081526020015f205f8282546114529190612792565b925050819055508173ffffffffffffffffffffffffffffffffffffffff16837f293317704fe21746137c9c60a159b0cf30d7bcd8ecae42fb3dcf33bbf4bd61ec5f34856040516114a4939291906127c5565b60405180910390a36114b4611d21565b505050565b600581565b5f5f60025f8481526020019081526020015f206040518060a00160405290815f82015f9054906101000a900460ff1660018111156114ff576114fe611f97565b5b600181111561151157611510611f97565b5b8152602001600182015481526020016002820154815260200160038201548152602001600482015f9054906101000a900460ff16151515158152505090508060800151611561575f9150506116f9565b5f600181111561157457611573611f97565b5b815f0151600181111561158a57611589611f97565b5b036116f0575f5f5f60015f9054906101000a900473ffffffffffffffffffffffffffffffffffffffff1673ffffffffffffffffffffffffffffffffffffffff16638e15f4736040518163ffffffff1660e01b8152600401606060405180830381865afa1580156115fc573d5f5f3e3d5ffd5b505050506040513d601f19601f820116820180604052508101906116209190612561565b925092509250610e108142611635919061232f565b111561166d576040517f355e186c00000000000000000000000000000000000000000000000000000000815260040160405180910390fd5b5f83136116a6576040517f6077d21b00000000000000000000000000000000000000000000000000000000815260040160405180910390fd5b60068260126116b591906125b1565b6116bf91906125e5565b600a6116cb9190612748565b8385602001516116db919061241f565b6116e5919061248d565b9450505050506116f9565b80602001519150505b919050565b611706611bd7565b61170e611dfe565b565b606481565b6004602052805f5260405f205f915090505481565b5f5f60019054906101000a900473ffffffffffffffffffffffffffffffffffffffff16905090565b607881565b61175f611cbe565b611767611ce0565b5f82036117a0576040517ffbd85bc300000000000000000000000000000000000000000000000000000000815260040160405180910390fd5b5f81036117d9576040517f5697666100000000000000000000000000000000000000000000000000000000815260040160405180910390fd5b60025f8581526020019081526020015f206004015f9054906101000a900460ff1615611831576040517f89e56b8000000000000000000000000000000000000000000000000000000000815260040160405180910390fd5b5f7f000000000000000000000000000000000000000000000000000000000000000073ffffffffffffffffffffffffffffffffffffffff166323b872dd3330866040518463ffffffff1660e01b815260040161188f939291906127fa565b6020604051808303815f875af11580156118ab573d5f5f3e3d5ffd5b505050506040513d601f19601f820116820180604052508101906118cf91906123f4565b905080611908576040517f4161287400000000000000000000000000000000000000000000000000000000815260040160405180910390fd5b6040518060a0016040528060018081111561192657611925611f97565b5b81526020018481526020018381526020014281526020016001151581525060025f8781526020019081526020015f205f820151815f015f6101000a81548160ff0219169083600181111561197d5761197c611f97565b5b02179055506020820151816001015560408201518160020155606082015181600301556080820151816004015f6101000a81548160ff0219169083151502179055509050508260045f8673ffffffffffffffffffffffffffffffffffffffff1673ffffffffffffffffffffffffffffffffffffffff1681526020019081526020015f205f828254611a0e9190612792565b925050819055508373ffffffffffffffffffffffffffffffffffffffff16857f293317704fe21746137c9c60a159b0cf30d7bcd8ecae42fb3dcf33bbf4bd61ec60018686604051611a61939291906127c5565b60405180910390a350611a72611d21565b50505050565b5f60025f8381526020019081526020015f206004015f9054906101000a900460ff16611aa6575f9050611b2d565b3073ffffffffffffffffffffffffffffffffffffffff166367641cab836040518263ffffffff1660e01b8152600401611adf919061220d565b602060405180830381865afa925050508015611b1957506040513d601f19601f82011682018060405250810190611b16919061282f565b60015b611b25575f9050611b2d565b607881109150505b919050565b6003602052805f5260405f205f915090505481565b61271081565b610e1081565b611b5b611bd7565b5f73ffffffffffffffffffffffffffffffffffffffff168173ffffffffffffffffffffffffffffffffffffffff1603611bcb575f6040517f1e4fbdf7000000000000000000000000000000000000000000000000000000008152600401611bc29190612285565b60405180910390fd5b611bd481611d3b565b50565b611bdf611e5f565b73ffffffffffffffffffffffffffffffffffffffff16611bfd61172a565b73ffffffffffffffffffffffffffffffffffffffff1614611c5c57611c20611e5f565b6040517f118cdaa7000000000000000000000000000000000000000000000000000000008152600401611c539190612285565b60405180910390fd5b565b611c66611e66565b5f5f5f6101000a81548160ff0219169083151502179055507f5db9ee0a495bf2e6ff9c91a7834c1ba4fdd244a5e8aa4e537bd38aeae4b073aa611ca7611e5f565b604051611cb49190612285565b60405180910390a1565b611cc6611ea6565b6002611cd8611cd3611ee7565b611f10565b5f0181905550565b611ce8610a8e565b15611d1f576040517fd93c066500000000000000000000000000000000000000000000000000000000815260040160405180910390fd5b565b6001611d33611d2e611ee7565b611f10565b5f0181905550565b5f5f60019054906101000a900473ffffffffffffffffffffffffffffffffffffffff169050815f60016101000a81548173ffffffffffffffffffffffffffffffffffffffff021916908373ffffffffffffffffffffffffffffffffffffffff1602179055508173ffffffffffffffffffffffffffffffffffffffff168173ffffffffffffffffffffffffffffffffffffffff167f8be0079c531659141344cd1fd0a4f28419497f9722a3daafe3b4186f6b6457e060405160405180910390a35050565b611e06611ce0565b60015f5f6101000a81548160ff0219169083151502179055507f62e78cea01bee320cd4e420270b5ea74000d11b0c9f74754ebdbfc544b05a258611e48611e5f565b604051611e559190612285565b60405180910390a1565b5f33905090565b611e6e610a8e565b611ea4576040517f8dfc202b00000000000000000000000000000000000000000000000000000000815260040160405180910390fd5b565b611eae611f19565b15611ee5576040517f3ee5aeb500000000000000000000000000000000000000000000000000000000815260040160405180910390fd5b565b5f7f9b779b17422d0df92223018b32b4d1fa46e071723d6817e2486d003becc55f005f1b905090565b5f819050919050565b5f6002611f2c611f27611ee7565b611f10565b5f015414905090565b5f5ffd5b5f819050919050565b611f4b81611f39565b8114611f55575f5ffd5b50565b5f81359050611f6681611f42565b92915050565b5f60208284031215611f8157611f80611f35565b5b5f611f8e84828501611f58565b91505092915050565b7f4e487b71000000000000000000000000000000000000000000000000000000005f52602160045260245ffd5b60028110611fd557611fd4611f97565b5b50565b5f819050611fe582611fc4565b919050565b5f611ff482611fd8565b9050919050565b61200481611fea565b82525050565b61201381611f39565b82525050565b5f8115159050919050565b61202d81612019565b82525050565b5f60a0820190506120465f830188611ffb565b612053602083018761200a565b612060604083018661200a565b61206d606083018561200a565b61207a6080830184612024565b9695505050505050565b5f73ffffffffffffffffffffffffffffffffffffffff82169050919050565b5f819050919050565b5f6120c66120c16120bc84612084565b6120a3565b612084565b9050919050565b5f6120d7826120ac565b9050919050565b5f6120e8826120cd565b9050919050565b6120f8816120de565b82525050565b5f6020820190506121115f8301846120ef565b92915050565b5f612121826120cd565b9050919050565b61213181612117565b82525050565b5f60208201905061214a5f830184612128565b92915050565b5f61215a82612084565b9050919050565b61216a81612150565b8114612174575f5ffd5b50565b5f8135905061218581612161565b92915050565b5f602082840312156121a05761219f611f35565b5b5f6121ad84828501612177565b91505092915050565b5f5f604083850312156121cc576121cb611f35565b5b5f6121d985828601611f58565b92505060206121ea85828601612177565b9150509250929050565b5f6020820190506122075f830184612024565b92915050565b5f6020820190506122205f83018461200a565b92915050565b5f5f5f6060848603121561223d5761223c611f35565b5b5f61224a86828701611f58565b935050602061225b86828701612177565b925050604061226c86828701611f58565b9150509250925092565b61227f81612150565b82525050565b5f6020820190506122985f830184612276565b92915050565b5f5f5f5f608085870312156122b6576122b5611f35565b5b5f6122c387828801611f58565b94505060206122d487828801612177565b93505060406122e587828801611f58565b92505060606122f687828801611f58565b91505092959194509250565b7f4e487b71000000000000000000000000000000000000000000000000000000005f52601160045260245ffd5b5f61233982611f39565b915061234483611f39565b925082820390508181111561235c5761235b612302565b5b92915050565b5f81905092915050565b50565b5f61237a5f83612362565b91506123858261236c565b5f82019050919050565b5f6123998261236f565b9150819050919050565b5f6040820190506123b65f830185612276565b6123c3602083018461200a565b9392505050565b6123d381612019565b81146123dd575f5ffd5b50565b5f815190506123ee816123ca565b92915050565b5f6020828403121561240957612408611f35565b5b5f612416848285016123e0565b91505092915050565b5f61242982611f39565b915061243483611f39565b925082820261244281611f39565b9150828204841483151761245957612458612302565b5b5092915050565b7f4e487b71000000000000000000000000000000000000000000000000000000005f52601260045260245ffd5b5f61249782611f39565b91506124a283611f39565b9250826124b2576124b1612460565b5b828204905092915050565b5f6040820190506124d05f83018561200a565b6124dd602083018461200a565b9392505050565b5f819050919050565b6124f6816124e4565b8114612500575f5ffd5b50565b5f81519050612511816124ed565b92915050565b5f60ff82169050919050565b61252c81612517565b8114612536575f5ffd5b50565b5f8151905061254781612523565b92915050565b5f8151905061255b81611f42565b92915050565b5f5f5f6060848603121561257857612577611f35565b5b5f61258586828701612503565b935050602061259686828701612539565b92505060406125a78682870161254d565b9150509250925092565b5f6125bb82612517565b91506125c683612517565b9250828201905060ff8111156125df576125de612302565b5b92915050565b5f6125ef82612517565b91506125fa83612517565b9250828203905060ff81111561261357612612612302565b5b92915050565b5f8160011c9050919050565b5f5f8291508390505b600185111561266e5780860481111561264a57612649612302565b5b60018516156126595780820291505b808102905061266785612619565b945061262e565b94509492505050565b5f826126865760019050612741565b81612693575f9050612741565b81600181146126a957600281146126b3576126e2565b6001915050612741565b60ff8411156126c5576126c4612302565b5b8360020a9150848211156126dc576126db612302565b5b50612741565b5060208310610133831016604e8410600b84101617156127175782820a90508381111561271257612711612302565b5b612741565b6127248484846001612625565b9250905081840481111561273b5761273a612302565b5b81810290505b9392505050565b5f61275282611f39565b915061275d83612517565b925061278a7fffffffffffffffffffffffffffffffffffffffffffffffffffffffffffffffff8484612677565b905092915050565b5f61279c82611f39565b91506127a783611f39565b92508282019050808211156127bf576127be612302565b5b92915050565b5f6060820190506127d85f830186611ffb565b6127e5602083018561200a565b6127f2604083018461200a565b949350505050565b5f60608201905061280d5f830186612276565b61281a6020830185612276565b612827604083018461200a565b949350505050565b5f6020828403121561284457612843611f35565b5b5f6128518482850161254d565b9150509291505056fea2646970667358221220f3149bb73aace5f4afdebd15b769f92c60af1e746934b84cae228c93b87db2e164736f6c634300081e0033",
    "linkReferences": {}
  },
  "methodIdentifiers": {
    "BASIS_POINTS()": "e1f1c4a7",
    "LIQUIDATION_THRESHOLD()": "90a8ae9b",
    "LIQUIDATOR_REWARD()": "7f3020c1",
    "PERCENTAGE_BASE()": "87c13943",
    "PRICE_STALENESS_THRESHOLD()": "f25b9caa",
    "canLiquidate(uint256)": "9df411ee",
    "collaterals(uint256)": "24c1173b",
    "getCollateralValue(uint256)": "82fee08f",
    "getHealthRatio(uint256)": "67641cab",
    "liquidate(uint256,address)": "5fae8b3d",
    "lockEthCollateral(uint256,address,uint256)": "75070174",
    "lockUsdtCollateral(uint256,address,uint256,uint256)": "95a4f246",
    "owner()": "8da5cb5b",
    "pause()": "8456cb59",
    "paused()": "5c975abb",
    "priceOracle()": "2630c12f",
    "releaseCollateral(uint256,address)": "532c6b37",
    "renounceOwnership()": "715018a6",
    "totalEthCollateral(address)": "cc1ee448",
    "totalUsdtCollateral(address)": "8d918285",
    "transferOwnership(address)": "f2fde38b",
    "unpause()": "3f4ba83a",
    "updatePriceOracle(address)": "39d1fc82",
    "usdt()": "2f48ab7d"
  },
  "id": 28
}