{"abi":[{"type":"constructor","inputs":[],"stateMutability":"nonpayable"},{"type":"function","name":"BONUS_SCORE_AMOUNT","inputs":[],"outputs":[{"name":"","type":"uint256","internalType":"uint256"}],"stateMutability":"view"},{"type":"function","name":"BONUS_SCORE_THRESHOLD","inputs":[],"outputs":[{"name":"","type":"uint256","internalType":"uint256"}],"stateMutability":"view"},{"type":"function","name":"INITIAL_SCORE","inputs":[],"outputs":[{"name":"","type":"uint256","internalType":"uint256"}],"stateMutability":"view"},{"type":"function","name":"MAX_SCORE","inputs":[],"outputs":[{"name":"","type":"uint256","internalType":"uint256"}],"stateMutability":"view"},{"type":"function","name":"MIN_SCORE","inputs":[],"outputs":[{"name":"","type":"uint256","internalType":"uint256"}],"stateMutability":"view"},{"type":"function","name":"SCORE_DECREASE_PER_DEFAULT","inputs":[],"outputs":[{"name":"","type":"uint256","internalType":"uint256"}],"stateMutability":"view"},{"type":"function","name":"SCORE_INCREASE_PER_REPAYMENT","inputs":[],"outputs":[{"name":"","type":"uint256","internalType":"uint256"}],"stateMutability":"view"},{"type":"function","name":"TIER_EXCELLENT","inputs":[],"outputs":[{"name":"","type":"uint256","internalType":"uint256"}],"stateMutability":"view"},{"type":"function","name":"TIER_FAIR","inputs":[],"outputs":[{"name":"","type":"uint256","internalType":"uint256"}],"stateMutability":"view"},{"type":"function","name":"TIER_GOOD","inputs":[],"outputs":[{"name":"","type":"uint256","internalType":"uint256"}],"stateMutability":"view"},{"type":"function","name":"TIER_POOR","inputs":[],"outputs":[{"name":"","type":"uint256","internalType":"uint256"}],"stateMutability":"view"},{"type":"function","name":"getCreditTier","inputs":[{"name":"user","type":"address","internalType":"address"}],"outputs":[{"name":"","type":"string","internalType":"string"}],"stateMutability":"view"},{"type":"function","name":"getRequiredCollateralRatio","inputs":[{"name":"user","type":"address","internalType":"address"}],"outputs":[{"name":"","type":"uint256","internalType":"uint256"}],"stateMutability":"view"},{"type":"function","name":"getScore","inputs":[{"name":"user","type":"address","internalType":"address"}],"outputs":[{"name":"","type":"uint256","internalType":"uint256"}],"stateMutability":"view"},{"type":"function","name":"getUserData","inputs":[{"name":"user","type":"address","internalType":"address"}],"outputs":[{"name":"score","type":"uint256","internalType":"uint256"},{"name":"totalLoans","type":"uint256","internalType":"uint256"},{"name":"completedLoans","type":"uint256","internalType":"uint256"},{"name":"defaultedLoans","type":"uint256","internalType":"uint256"},{"name":"totalRepaid","type":"uint256","internalType":"uint256"},{"name":"successRate","type":"uint256","internalType":"uint256"}],"stateMutability":"view"},{"type":"function","name":"loanManager","inputs":[],"outputs":[{"name":"","type":"address","internalType":"address"}],"stateMutability":"view"},{"type":"function","name":"owner","inputs":[],"outputs":[{"name":"","type":"address","internalType":"address"}],"stateMutability":"view"},{"type":"function","name":"qualifiesForLoan","inputs":[{"name":"user","type":"address","internalType":"address"},{"name":"loanAmount","type":"uint256","internalType":"uint256"}],"outputs":[{"name":"","type":"bool","internalType":"bool"}],"stateMutability":"view"},{"type":"function","name":"recordDefault","inputs":[{"name":"user","type":"address","internalType":"address"},{"name":"loanAmount","type":"uint256","internalType":"uint256"}],"outputs":[],"stateMutability":"nonpayable"},{"type":"function","name":"recordLoan","inputs":[{"name":"user","type":"address","internalType":"address"},{"name":"loanAmount","type":"uint256","internalType":"uint256"}],"outputs":[],"stateMutability":"nonpayable"},{"type":"function","name":"recordRepayment","inputs":[{"name":"user","type":"address","internalType":"address"},{"name":"repaymentAmount","type":"uint256","internalType":"uint256"}],"outputs":[],"stateMutability":"nonpayable"},{"type":"function","name":"renounceOwnership","inputs":[],"outputs":[],"stateMutability":"nonpayable"},{"type":"function","name":"setLoanManager","inputs":[{"name":"_loanManager","type":"address","internalType":"address"}],"outputs":[],"stateMutability":"nonpayable"},{"type":"function","name":"transferOwnership","inputs":[{"name":"newOwner","type":"address","internalType":"address"}],"outputs":[],"stateMutability":"nonpayable"},{"type":"function","name":"userScores","inputs":[{"name":"","type":"address","internalType":"address"}],"outputs":[{"name":"score","type":"uint256","internalType":"uint256"},{"name":"totalLoans","type":"uint256","internalType":"uint256"},{"name":"completedLoans","type":"uint256","internalType":"uint256"},{"name":"defaultedLoans","type":"uint256","internalType":"uint256"},{"name":"totalRepaid","type":"uint256","internalType":"uint256"},{"name":"lastUpdated","type":"uint256","internalType":"uint256"}],"stateMutability":"view"},{"type":"event","name":"DefaultRecorded","inputs":[{"name":"user","type":"address","indexed":true,"internalType":"address"},{"name":"loanAmount","type":"uint256","indexed":false,"internalType":"uint256"}],"anonymous":false},{"type":"event","name":"LoanManagerUpdated","inputs":[{"name":"oldManager","type":"address","indexed":true,"internalType":"address"},{"name":"newManager","type":"address","indexed":true,"internalType":"address"}],"anonymous":false},{"type":"event","name":"LoanRecorded","inputs":[{"name":"user","type":"address","indexed":true,"internalType":"address"},{"name":"loanAmount","type":"uint256","indexed":false,"internalType":"uint256"}],"anonymous":false},{"type":"event","name":"OwnershipTransferred","inputs":[{"name":"previousOwner","type":"address","indexed":true,"internalType":"address"},{"name":"newOwner","type":"address","indexed":true,"internalType":"address"}],"anonymous":false},{"type":"event","name":"RepaymentRecorded","inputs":[{"name":"user","type":"address","indexed":true,"internalType":"address"},{"name":"repaymentAmount","type":"uint256","indexed":false,"internalType":"uint256"}],"anonymous":false},{"type":"event","name":"ScoreUpdated","inputs":[{"name":"user","type":"address","indexed":true,"internalType":"address"},{"name":"oldScore","type":"uint256","indexed":false,"internalType":"uint256"},{"name":"newScore","type":"uint256","indexed":false,"internalType":"uint256"},{"name":"reason","type":"string","indexed":false,"internalType":"string"}],"anonymous":false},{"type":"error","name":"InvalidAddress","inputs":[]},{"type":"error","name":"InvalidScore","inputs":[]},{"type":"error","name":"OnlyLoanManager","inputs":[]},{"type":"error","name":"OwnableInvalidOwner","inputs":[{"name":"owner","type":"address","internalType":"address"}]},{"type":"error","name":"OwnableUnauthorizedAccount","inputs":[{"name":"account","type":"address","internalType":"address"}]}],"bytecode":{"object":"0x608060405234801561000f575f5ffd5b50335f73ffffffffffffffffffffffffffffffffffffffff168173ffffffffffffffffffffffffffffffffffffffff1603610081575f6040517f1e4fbdf70000000000000000000000000000000000000000000000000000000081526004016100789190610196565b60405180910390fd5b6100908161009660201b60201c565b506101af565b5f5f5f9054906101000a900473ffffffffffffffffffffffffffffffffffffffff169050815f5f6101000a81548173ffffffffffffffffffffffffffffffffffffffff021916908373ffffffffffffffffffffffffffffffffffffffff1602179055508173ffffffffffffffffffffffffffffffffffffffff168173ffffffffffffffffffffffffffffffffffffffff167f8be0079c531659141344cd1fd0a4f28419497f9722a3daafe3b4186f6b6457e060405160405180910390a35050565b5f73ffffffffffffffffffffffffffffffffffffffff82169050919050565b5f61018082610157565b9050919050565b61019081610176565b82525050565b5f6020820190506101a95f830184610187565b92915050565b611992806101bc5f395ff3fe608060405234801561000f575f5ffd5b5060043610610171575f3560e01c806363347ec8116100dc578063a6bb650e11610095578063d47875d01161006f578063d47875d01461041c578063de3303731461044c578063f2fde38b1461046a578063ffc9896b1461048657610171565b8063a6bb650e146103c4578063b3ccbcfe146103e2578063cd4544f21461040057610171565b806363347ec814610300578063715018a61461031e578063859b1f23146103285780638b4f99db146103585780638da5cb5b146103765780638fd00e881461039457610171565b8063239c3df81161012e578063239c3df81461023e57806327ff62231461025a5780632f063ae81461027857806340b89270146102965780635772ae70146102b457806361075f8e146102d057610171565b80630471c4e4146101755780630a48bec6146101935780630bcceefc146101b15780631413d4c0146101cf5780631922bb6f146102045780632099c9da14610220575b5f5ffd5b61017d6104bb565b60405161018a9190611458565b60405180910390f35b61019b6104c0565b6040516101a89190611458565b60405180910390f35b6101b96104c6565b6040516101c69190611458565b60405180910390f35b6101e960048036038101906101e491906114cf565b6104cb565b6040516101fb969594939291906114fa565b60405180910390f35b61021e60048036038101906102199190611583565b610503565b005b610228610695565b6040516102359190611458565b60405180910390f35b61025860048036038101906102539190611583565b61069a565b005b6102626108d8565b60405161026f9190611458565b60405180910390f35b6102806108de565b60405161028d9190611458565b60405180910390f35b61029e6108e4565b6040516102ab9190611458565b60405180910390f35b6102ce60048036038101906102c991906114cf565b6108e8565b005b6102ea60048036038101906102e591906114cf565b610a18565b6040516102f79190611631565b60405180910390f35b610308610c07565b6040516103159190611458565b60405180910390f35b610326610c0d565b005b610342600480360381019061033d91906114cf565b610c20565b60405161034f9190611458565b60405180910390f35b610360610d0a565b60405161036d9190611458565b60405180910390f35b61037e610d0f565b60405161038b9190611660565b60405180910390f35b6103ae60048036038101906103a99190611583565b610d36565b6040516103bb9190611693565b60405180910390f35b6103cc610e9c565b6040516103d99190611458565b60405180910390f35b6103ea610ea1565b6040516103f79190611660565b60405180910390f35b61041a60048036038101906104159190611583565b610ec6565b005b610436600480360381019061043191906114cf565b6110c9565b6040516104439190611458565b60405180910390f35b610454611170565b6040516104619190611458565b60405180910390f35b610484600480360381019061047f91906114cf565b611176565b005b6104a0600480360381019061049b91906114cf565b6111fa565b6040516104b2969594939291906114fa565b60405180910390f35b60c881565b61032081565b606481565b6001602052805f5260405f205f91509050805f0154908060010154908060020154908060030154908060040154908060050154905086565b60025f9054906101000a900473ffffffffffffffffffffffffffffffffffffffff1673ffffffffffffffffffffffffffffffffffffffff163373ffffffffffffffffffffffffffffffffffffffff16141580156105935750610563610d0f565b73ffffffffffffffffffffffffffffffffffffffff163373ffffffffffffffffffffffffffffffffffffffff1614155b156105ca576040517f757af6ab00000000000000000000000000000000000000000000000000000000815260040160405180910390fd5b5f60015f8473ffffffffffffffffffffffffffffffffffffffff1673ffffffffffffffffffffffffffffffffffffffff1681526020019081526020015f2090505f816001015403610620576101f4815f01819055505b806001015f815480929190610634906116d9565b91905055504281600501819055508273ffffffffffffffffffffffffffffffffffffffff167fffe187e73cc5bccaf8e900e0413f69bf2f0fd27696bf67873539f575c09c50b2836040516106889190611458565b60405180910390a2505050565b600581565b60025f9054906101000a900473ffffffffffffffffffffffffffffffffffffffff1673ffffffffffffffffffffffffffffffffffffffff163373ffffffffffffffffffffffffffffffffffffffff161415801561072a57506106fa610d0f565b73ffffffffffffffffffffffffffffffffffffffff163373ffffffffffffffffffffffffffffffffffffffff1614155b15610761576040517f757af6ab00000000000000000000000000000000000000000000000000000000815260040160405180910390fd5b5f60015f8473ffffffffffffffffffffffffffffffffffffffff1673ffffffffffffffffffffffffffffffffffffffff1681526020019081526020015f2090505f815f01549050816002015f8154809291906107bc906116d9565b919050555082826004015f8282546107d49190611720565b925050819055505f600a826107e99190611720565b90505f600584600201546107fd9190611780565b036108125760328161080f9190611720565b90505b6103e8811115610822576103e890505b80835f01819055504283600501819055508473ffffffffffffffffffffffffffffffffffffffff167f6ce1bfd656bc1ef96fa616ebfffa795d56f4bad505ce91a57e65c48e0c61b93f856040516108799190611458565b60405180910390a28473ffffffffffffffffffffffffffffffffffffffff167f7e2add12a328a86680ec5cfd32c70eaa4590ecb9df3e614e146da05d547a5e3083836040516108c99291906117fa565b60405180910390a25050505050565b6103e881565b61019081565b5f81565b6108f06112f1565b5f73ffffffffffffffffffffffffffffffffffffffff168173ffffffffffffffffffffffffffffffffffffffff1603610955576040517fe6c4247b00000000000000000000000000000000000000000000000000000000815260040160405180910390fd5b5f60025f9054906101000a900473ffffffffffffffffffffffffffffffffffffffff1690508160025f6101000a81548173ffffffffffffffffffffffffffffffffffffffff021916908373ffffffffffffffffffffffffffffffffffffffff1602179055508173ffffffffffffffffffffffffffffffffffffffff168173ffffffffffffffffffffffffffffffffffffffff167ffdf6314fb555cec5a13bf6516f91ba9c16633352a4b520c6fdbde4f0ce21349d60405160405180910390a35050565b60605f5f60015f8573ffffffffffffffffffffffffffffffffffffffff1673ffffffffffffffffffffffffffffffffffffffff1681526020019081526020015f206001015414610aa75760015f8473ffffffffffffffffffffffffffffffffffffffff1673ffffffffffffffffffffffffffffffffffffffff1681526020019081526020015f205f0154610aab565b6101f45b90506103208110610af4576040518060400160405280600981526020017f457863656c6c656e740000000000000000000000000000000000000000000000815250915050610c02565b6102588110610b3b576040518060400160405280600481526020017f476f6f6400000000000000000000000000000000000000000000000000000000815250915050610c02565b6101908110610b82576040518060400160405280600481526020017f4661697200000000000000000000000000000000000000000000000000000000815250915050610c02565b60c88110610bc8576040518060400160405280600481526020017f506f6f7200000000000000000000000000000000000000000000000000000000815250915050610c02565b6040518060400160405280600981526020017f5665727920506f6f7200000000000000000000000000000000000000000000008152509150505b919050565b61025881565b610c156112f1565b610c1e5f611378565b565b5f5f5f60015f8573ffffffffffffffffffffffffffffffffffffffff1673ffffffffffffffffffffffffffffffffffffffff1681526020019081526020015f206001015414610cae5760015f8473ffffffffffffffffffffffffffffffffffffffff1673ffffffffffffffffffffffffffffffffffffffff1681526020019081526020015f205f0154610cb2565b6101f45b90506103208110610cc757606e915050610d05565b6102588110610cda576078915050610d05565b6101908110610ced57608c915050610d05565b60c88110610cff5760a0915050610d05565b60b49150505b919050565b600a81565b5f5f5f9054906101000a900473ffffffffffffffffffffffffffffffffffffffff16905090565b5f5f60015f8573ffffffffffffffffffffffffffffffffffffffff1673ffffffffffffffffffffffffffffffffffffffff1681526020019081526020015f206040518060c00160405290815f82015481526020016001820154815260200160028201548152602001600382015481526020016004820154815260200160058201548152505090505f816020015103610dd95764012a05f200831115915050610e96565b5f81606001511115610e1d575f816020015160648360600151610dfc9190611834565b610e069190611875565b90506014811115610e1b575f92505050610e96565b505b5f610320825f015110610e375764174876e8009050610e8d565b610258825f015110610e5057640ba43b74009050610e8c565b610190825f015110610e69576404a817c8009050610e8b565b60c8825f015110610e81576402540be4009050610e8a565b64012a05f20090505b5b5b5b80841115925050505b92915050565b603281565b60025f9054906101000a900473ffffffffffffffffffffffffffffffffffffffff1681565b60025f9054906101000a900473ffffffffffffffffffffffffffffffffffffffff1673ffffffffffffffffffffffffffffffffffffffff163373ffffffffffffffffffffffffffffffffffffffff1614158015610f565750610f26610d0f565b73ffffffffffffffffffffffffffffffffffffffff163373ffffffffffffffffffffffffffffffffffffffff1614155b15610f8d576040517f757af6ab00000000000000000000000000000000000000000000000000000000815260040160405180910390fd5b5f60015f8473ffffffffffffffffffffffffffffffffffffffff1673ffffffffffffffffffffffffffffffffffffffff1681526020019081526020015f2090505f815f01549050816003015f815480929190610fe8906116d9565b91905055505f606490505f8183111561100e57818361100791906118a5565b9050611012565b5f90505b80845f01819055504284600501819055508573ffffffffffffffffffffffffffffffffffffffff167f1d9938520c17ffed9a7f1a4489b2bdb04e5570305d789b904cccb81ba0e2d1b6866040516110699190611458565b60405180910390a28573ffffffffffffffffffffffffffffffffffffffff167f7e2add12a328a86680ec5cfd32c70eaa4590ecb9df3e614e146da05d547a5e3084836040516110b9929190611922565b60405180910390a2505050505050565b5f5f60015f8473ffffffffffffffffffffffffffffffffffffffff1673ffffffffffffffffffffffffffffffffffffffff1681526020019081526020015f206040518060c00160405290815f82015481526020016001820154815260200160028201548152602001600382015481526020016004820154815260200160058201548152505090505f81602001511461116457805f0151611168565b6101f45b915050919050565b6101f481565b61117e6112f1565b5f73ffffffffffffffffffffffffffffffffffffffff168173ffffffffffffffffffffffffffffffffffffffff16036111ee575f6040517f1e4fbdf70000000000000000000000000000000000000000000000000000000081526004016111e59190611660565b60405180910390fd5b6111f781611378565b50565b5f5f5f5f5f5f5f60015f8973ffffffffffffffffffffffffffffffffffffffff1673ffffffffffffffffffffffffffffffffffffffff1681526020019081526020015f206040518060c00160405290815f82015481526020016001820154815260200160028201548152602001600382015481526020016004820154815260200160058201548152505090505f81602001511461129a57805f015161129e565b6101f45b9650806020015195508060400151945080606001519350806080015192505f8611156112e357856064866112d29190611834565b6112dc9190611875565b91506112e7565b5f91505b5091939550919395565b6112f9611439565b73ffffffffffffffffffffffffffffffffffffffff16611317610d0f565b73ffffffffffffffffffffffffffffffffffffffff16146113765761133a611439565b6040517f118cdaa700000000000000000000000000000000000000000000000000000000815260040161136d9190611660565b60405180910390fd5b565b5f5f5f9054906101000a900473ffffffffffffffffffffffffffffffffffffffff169050815f5f6101000a81548173ffffffffffffffffffffffffffffffffffffffff021916908373ffffffffffffffffffffffffffffffffffffffff1602179055508173ffffffffffffffffffffffffffffffffffffffff168173ffffffffffffffffffffffffffffffffffffffff167f8be0079c531659141344cd1fd0a4f28419497f9722a3daafe3b4186f6b6457e060405160405180910390a35050565b5f33905090565b5f819050919050565b61145281611440565b82525050565b5f60208201905061146b5f830184611449565b92915050565b5f5ffd5b5f73ffffffffffffffffffffffffffffffffffffffff82169050919050565b5f61149e82611475565b9050919050565b6114ae81611494565b81146114b8575f5ffd5b50565b5f813590506114c9816114a5565b92915050565b5f602082840312156114e4576114e3611471565b5b5f6114f1848285016114bb565b91505092915050565b5f60c08201905061150d5f830189611449565b61151a6020830188611449565b6115276040830187611449565b6115346060830186611449565b6115416080830185611449565b61154e60a0830184611449565b979650505050505050565b61156281611440565b811461156c575f5ffd5b50565b5f8135905061157d81611559565b92915050565b5f5f6040838503121561159957611598611471565b5b5f6115a6858286016114bb565b92505060206115b78582860161156f565b9150509250929050565b5f81519050919050565b5f82825260208201905092915050565b8281835e5f83830152505050565b5f601f19601f8301169050919050565b5f611603826115c1565b61160d81856115cb565b935061161d8185602086016115db565b611626816115e9565b840191505092915050565b5f6020820190508181035f83015261164981846115f9565b905092915050565b61165a81611494565b82525050565b5f6020820190506116735f830184611651565b92915050565b5f8115159050919050565b61168d81611679565b82525050565b5f6020820190506116a65f830184611684565b92915050565b7f4e487b71000000000000000000000000000000000000000000000000000000005f52601160045260245ffd5b5f6116e382611440565b91507fffffffffffffffffffffffffffffffffffffffffffffffffffffffffffffffff8203611715576117146116ac565b5b600182019050919050565b5f61172a82611440565b915061173583611440565b925082820190508082111561174d5761174c6116ac565b5b92915050565b7f4e487b71000000000000000000000000000000000000000000000000000000005f52601260045260245ffd5b5f61178a82611440565b915061179583611440565b9250826117a5576117a4611753565b5b828206905092915050565b7f5375636365737366756c2072657061796d656e740000000000000000000000005f82015250565b5f6117e46014836115cb565b91506117ef826117b0565b602082019050919050565b5f60608201905061180d5f830185611449565b61181a6020830184611449565b818103604083015261182b816117d8565b90509392505050565b5f61183e82611440565b915061184983611440565b925082820261185781611440565b9150828204841483151761186e5761186d6116ac565b5b5092915050565b5f61187f82611440565b915061188a83611440565b92508261189a57611899611753565b5b828204905092915050565b5f6118af82611440565b91506118ba83611440565b92508282039050818111156118d2576118d16116ac565b5b92915050565b7f4c6f616e2064656661756c7400000000000000000000000000000000000000005f82015250565b5f61190c600c836115cb565b9150611917826118d8565b602082019050919050565b5f6060820190506119355f830185611449565b6119426020830184611449565b818103604083015261195381611900565b9050939250505056fea2646970667358221220d2c34dca6c5e0996307b10c1c2919cafff9cc397e43e95d4204d1590ed48d8d164736f6c634300081e0033","linkReferences":{}},"methodIdentifiers":{"BONUS_SCORE_AMOUNT()":"a6bb650e","BONUS_SCORE_THRESHOLD()":"2099c9da","INITIAL_SCORE()":"de330373","MAX_SCORE()":"27ff6223","MIN_SCORE()":"40b89270","SCORE_DECREASE_PER_DEFAULT()":"0bcceefc","SCORE_INCREASE_PER_REPAYMENT()":"8b4f99db","TIER_EXCELLENT()":"0a48bec6","TIER_FAIR()":"2f063ae8","TIER_GOOD()":"63347ec8","TIER_POOR()":"0471c4e4","getCreditTier(address)":"61075f8e","getRequiredCollateralRatio(address)":"859b1f23","getScore(address)":"d47875d0","getUserData(address)":"ffc9896b","loanManager()":"b3ccbcfe","owner()":"8da5cb5b","qualifiesForLoan(address,uint256)":"8fd00e88","recordDefault(address,uint256)":"cd4544f2","recordLoan(address,uint256)":"1922bb6f","recordRepayment(address,uint256)":"239c3df8","renounceOwnership()":"715018a6","setLoanManager(address)":"5772ae70","transferOwnership(address)":"f2fde38b","userScores(address)":"1413d4c0"},"id":29}