{"abi":[{"type":"function","name":"BASE_RATE","inputs":[],"outputs":[{"name":"","type":"uint256","internalType":"uint256"}],"stateMutability":"view"},{"type":"function","name":"BASIS_POINTS","inputs":[],"outputs":[{"name":"","type":"uint256","internalType":"uint256"}],"stateMutability":"view"},{"type":"function","name":"OPTIMAL_UTILIZATION","inputs":[],"outputs":[{"name":"","type":"uint256","internalType":"uint256"}],"stateMutability":"view"},{"type":"function","name":"SLOPE_1","inputs":[],"outputs":[{"name":"","type":"uint256","internalType":"uint256"}],"stateMutability":"view"},{"type":"function","name":"SLOPE_2","inputs":[],"outputs":[{"name":"","type":"uint256","internalType":"uint256"}],"stateMutability":"view"},{"type":"function","name":"calculateAccruedInterest","inputs":[{"name":"principal","type":"uint256","internalType":"uint256"},{"name":"rate","type":"uint256","internalType":"uint256"},{"name":"timeElapsed","type":"uint256","internalType":"uint256"}],"outputs":[{"name":"accruedInterest","type":"uint256","internalType":"uint256"}],"stateMutability":"pure"},{"type":"function","name":"calculateBorrowRate","inputs":[{"name":"utilization","type":"uint256","internalType":"uint256"}],"outputs":[{"name":"rate","type":"uint256","internalType":"uint256"}],"stateMutability":"pure"},{"type":"function","name":"calculateInterest","inputs":[{"name":"principal","type":"uint256","internalType":"uint256"},{"name":"rate","type":"uint256","internalType":"uint256"},{"name":"durationDays","type":"uint256","internalType":"uint256"}],"outputs":[{"name":"interest","type":"uint256","internalType":"uint256"}],"stateMutability":"pure"},{"type":"function","name":"calculateLenderAPY","inputs":[{"name":"utilization","type":"uint256","internalType":"uint256"},{"name":"borrowRate","type":"uint256","internalType":"uint256"}],"outputs":[{"name":"apy","type":"uint256","internalType":"uint256"}],"stateMutability":"pure"},{"type":"function","name":"calculateUtilization","inputs":[{"name":"totalBorrowed","type":"uint256","internalType":"uint256"},{"name":"totalLiquidity","type":"uint256","internalType":"uint256"}],"outputs":[{"name":"utilization","type":"uint256","internalType":"uint256"}],"stateMutability":"pure"},{"type":"function","name":"getLoanTypeRate","inputs":[{"name":"loanType","type":"uint8","internalType":"enum InterestCalculator.LoanType"}],"outputs":[{"name":"rate","type":"uint256","internalType":"uint256"}],"stateMutability":"pure"}],"bytecode":{"object":"0x6080604052348015600e575f5ffd5b50610c768061001c5f395ff3fe608060405234801561000f575f5ffd5b50600436106100a7575f3560e01c80634bc1dca81161006f5780634bc1dca8146101655780636cf9c58514610195578063cf762dfa146101c5578063e0bf2117146101e3578063e1f1c4a714610213578063e714430f14610231576100a7565b806305e1bd8c146100ab578063321105fb146100db5780633bf42d4b146100f957806341910f901461011757806349186ab314610135575b5f5ffd5b6100c560048036038101906100c091906106dd565b610261565b6040516100d2919061073c565b60405180910390f35b6100e3610365565b6040516100f0919061073c565b60405180910390f35b61010161036b565b60405161010e919061073c565b60405180910390f35b61011f610371565b60405161012c919061073c565b60405180910390f35b61014f600480360381019061014a9190610778565b610377565b60405161015c919061073c565b60405180910390f35b61017f600480360381019061017a91906107a3565b61048e565b60405161018c919061073c565b60405180910390f35b6101af60048036038101906101aa91906107a3565b6104f5565b6040516101bc919061073c565b60405180910390f35b6101cd610537565b6040516101da919061073c565b60405180910390f35b6101fd60048036038101906101f891906107e1565b61053d565b60405161020a919061073c565b60405180910390f35b61021b61061c565b604051610228919061073c565b60405180910390f35b61024b600480360381019061024691906106dd565b610622565b604051610258919061073c565b60405180910390f35b5f5f84116102a4576040517f08c379a000000000000000000000000000000000000000000000000000000000815260040161029b9061088c565b60405180910390fd5b5f82116102e6576040517f08c379a00000000000000000000000000000000000000000000000000000000081526004016102dd9061091a565b60405180910390fd5b61016d82111561032b576040517f08c379a0000000000000000000000000000000000000000000000000000000008152600401610322906109a8565b60405180910390fd5b61016d61271061033b91906109f3565b82848661034891906109f3565b61035291906109f3565b61035c9190610a61565b90509392505050565b61019081565b61177081565b61012c81565b5f5f600381111561038b5761038a610a91565b5b82600381111561039e5761039d610a91565b5b036103ad576103209050610489565b600160038111156103c1576103c0610a91565b5b8260038111156103d4576103d3610a91565b5b036103e3576101f49050610489565b600260038111156103f7576103f6610a91565b5b82600381111561040a57610409610a91565b5b03610419576103e89050610489565b60038081111561042c5761042b610a91565b5b82600381111561043f5761043e610a91565b5b0361044e576102589050610489565b6040517f08c379a000000000000000000000000000000000000000000000000000000000815260040161048090610b2e565b60405180910390fd5b919050565b5f6127108311156104d4576040517f08c379a00000000000000000000000000000000000000000000000000000000081526004016104cb90610bbc565b60405180910390fd5b61271083836104e391906109f3565b6104ed9190610a61565b905092915050565b5f5f8203610505575f9050610531565b816127108461051491906109f3565b61051e9190610a61565b90506127108111156105305761271090505b5b92915050565b611f4081565b5f612710821115610583576040517f08c379a000000000000000000000000000000000000000000000000000000000815260040161057a90610bbc565b60405180910390fd5b611f4082116105bb57611f406101908361059d91906109f3565b6105a79190610a61565b61012c6105b49190610bda565b9050610617565b5f611f40836105ca9190610c0d565b90505f611f406127106105dd9190610c0d565b905080611770836105ee91906109f3565b6105f89190610a61565b61019061012c6106089190610bda565b6106129190610bda565b925050505b919050565b61271081565b5f5f8411610665576040517f08c379a000000000000000000000000000000000000000000000000000000000815260040161065c9061088c565b60405180910390fd5b5f6301e1338090508061271061067b91906109f3565b83858761068891906109f3565b61069291906109f3565b61069c9190610a61565b9150509392505050565b5f5ffd5b5f819050919050565b6106bc816106aa565b81146106c6575f5ffd5b50565b5f813590506106d7816106b3565b92915050565b5f5f5f606084860312156106f4576106f36106a6565b5b5f610701868287016106c9565b9350506020610712868287016106c9565b9250506040610723868287016106c9565b9150509250925092565b610736816106aa565b82525050565b5f60208201905061074f5f83018461072d565b92915050565b60048110610761575f5ffd5b50565b5f8135905061077281610755565b92915050565b5f6020828403121561078d5761078c6106a6565b5b5f61079a84828501610764565b91505092915050565b5f5f604083850312156107b9576107b86106a6565b5b5f6107c6858286016106c9565b92505060206107d7858286016106c9565b9150509250929050565b5f602082840312156107f6576107f56106a6565b5b5f610803848285016106c9565b91505092915050565b5f82825260208201905092915050565b7f496e74657265737443616c63756c61746f723a207a65726f207072696e6369705f8201527f616c000000000000000000000000000000000000000000000000000000000000602082015250565b5f61087660228361080c565b91506108818261081c565b604082019050919050565b5f6020820190508181035f8301526108a38161086a565b9050919050565b7f496e74657265737443616c63756c61746f723a207a65726f206475726174696f5f8201527f6e00000000000000000000000000000000000000000000000000000000000000602082015250565b5f61090460218361080c565b915061090f826108aa565b604082019050919050565b5f6020820190508181035f830152610931816108f8565b9050919050565b7f496e74657265737443616c63756c61746f723a206475726174696f6e20746f6f5f8201527f206c6f6e67000000000000000000000000000000000000000000000000000000602082015250565b5f61099260258361080c565b915061099d82610938565b604082019050919050565b5f6020820190508181035f8301526109bf81610986565b9050919050565b7f4e487b71000000000000000000000000000000000000000000000000000000005f52601160045260245ffd5b5f6109fd826106aa565b9150610a08836106aa565b9250828202610a16816106aa565b91508282048414831517610a2d57610a2c6109c6565b5b5092915050565b7f4e487b71000000000000000000000000000000000000000000000000000000005f52601260045260245ffd5b5f610a6b826106aa565b9150610a76836106aa565b925082610a8657610a85610a34565b5b828204905092915050565b7f4e487b71000000000000000000000000000000000000000000000000000000005f52602160045260245ffd5b7f496e74657265737443616c63756c61746f723a20696e76616c6964206c6f616e5f8201527f2074797065000000000000000000000000000000000000000000000000000000602082015250565b5f610b1860258361080c565b9150610b2382610abe565b604082019050919050565b5f6020820190508181035f830152610b4581610b0c565b9050919050565b7f496e74657265737443616c63756c61746f723a20696e76616c6964207574696c5f8201527f697a6174696f6e00000000000000000000000000000000000000000000000000602082015250565b5f610ba660278361080c565b9150610bb182610b4c565b604082019050919050565b5f6020820190508181035f830152610bd381610b9a565b9050919050565b5f610be4826106aa565b9150610bef836106aa565b9250828201905080821115610c0757610c066109c6565b5b92915050565b5f610c17826106aa565b9150610c22836106aa565b9250828203905081811115610c3a57610c396109c6565b5b9291505056fea26469706673582212205d9ffb279e021ce51f5045126d7395aa7203df2c56d4078f292b52c4b5d3108d64736f6c634300081e0033","linkReferences":{}},"methodIdentifiers":{"BASE_RATE()":"41910f90","BASIS_POINTS()":"e1f1c4a7","OPTIMAL_UTILIZATION()":"cf762dfa","SLOPE_1()":"321105fb","SLOPE_2()":"3bf42d4b","calculateAccruedInterest(uint256,uint256,uint256)":"e714430f","calculateBorrowRate(uint256)":"e0bf2117","calculateInterest(uint256,uint256,uint256)":"05e1bd8c","calculateLenderAPY(uint256,uint256)":"4bc1dca8","calculateUtilization(uint256,uint256)":"6cf9c585","getLoanTypeRate(uint8)":"49186ab3"},"id":30}