{"abi":[{"type":"constructor","inputs":[{"name":"_usdt","type":"address","internalType":"address"},{"name":"_interestCalculator","type":"address","internalType":"address"}],"stateMutability":"nonpayable"},{"type":"function","name":"borrowFromPool","inputs":[{"name":"borrower","type":"address","internalType":"address"},{"name":"amount","type":"uint256","internalType":"uint256"}],"outputs":[],"stateMutability":"nonpayable"},{"type":"function","name":"calculatePendingInterest","inputs":[{"name":"lender","type":"address","internalType":"address"}],"outputs":[{"name":"pendingInterest","type":"uint256","internalType":"uint256"}],"stateMutability":"view"},{"type":"function","name":"claimInterest","inputs":[],"outputs":[],"stateMutability":"nonpayable"},{"type":"function","name":"deposit","inputs":[{"name":"amount","type":"uint256","internalType":"uint256"}],"outputs":[],"stateMutability":"nonpayable"},{"type":"function","name":"deposits","inputs":[{"name":"","type":"address","internalType":"address"}],"outputs":[{"name":"amount","type":"uint256","internalType":"uint256"},{"name":"depositTime","type":"uint256","internalType":"uint256"},{"name":"lastClaimTime","type":"uint256","internalType":"uint256"},{"name":"accruedInterest","type":"uint256","internalType":"uint256"}],"stateMutability":"view"},{"type":"function","name":"getAvailableLiquidity","inputs":[],"outputs":[{"name":"liquidity","type":"uint256","internalType":"uint256"}],"stateMutability":"view"},{"type":"function","name":"getCurrentAPY","inputs":[],"outputs":[{"name":"apy","type":"uint256","internalType":"uint256"}],"stateMutability":"view"},{"type":"function","name":"getDepositInfo","inputs":[{"name":"lender","type":"address","internalType":"address"}],"outputs":[{"name":"amount","type":"uint256","internalType":"uint256"},{"name":"depositTime","type":"uint256","internalType":"uint256"},{"name":"pendingInterest","type":"uint256","internalType":"uint256"}],"stateMutability":"view"},{"type":"function","name":"getPoolStats","inputs":[],"outputs":[{"name":"_totalDeposits","type":"uint256","internalType":"uint256"},{"name":"_totalBorrowed","type":"uint256","internalType":"uint256"},{"name":"_availableLiquidity","type":"uint256","internalType":"uint256"},{"name":"_utilization","type":"uint256","internalType":"uint256"},{"name":"_apy","type":"uint256","internalType":"uint256"}],"stateMutability":"view"},{"type":"function","name":"getUtilizationRate","inputs":[],"outputs":[{"name":"utilization","type":"uint256","internalType":"uint256"}],"stateMutability":"view"},{"type":"function","name":"interestCalculator","inputs":[],"outputs":[{"name":"","type":"address","internalType":"contract InterestCalculator"}],"stateMutability":"view"},{"type":"function","name":"interestPerDepositStored","inputs":[],"outputs":[{"name":"","type":"uint256","internalType":"uint256"}],"stateMutability":"view"},{"type":"function","name":"loanManager","inputs":[],"outputs":[{"name":"","type":"address","internalType":"address"}],"stateMutability":"view"},{"type":"function","name":"owner","inputs":[],"outputs":[{"name":"","type":"address","internalType":"address"}],"stateMutability":"view"},{"type":"function","name":"pause","inputs":[],"outputs":[],"stateMutability":"nonpayable"},{"type":"function","name":"paused","inputs":[],"outputs":[{"name":"","type":"bool","internalType":"bool"}],"stateMutability":"view"},{"type":"function","name":"renounceOwnership","inputs":[],"outputs":[],"stateMutability":"nonpayable"},{"type":"function","name":"repayToPool","inputs":[{"name":"amount","type":"uint256","internalType":"uint256"},{"name":"interestAmount","type":"uint256","internalType":"uint256"}],"outputs":[],"stateMutability":"nonpayable"},{"type":"function","name":"setLoanManager","inputs":[{"name":"_loanManager","type":"address","internalType":"address"}],"outputs":[],"stateMutability":"nonpayable"},{"type":"function","name":"totalBorrowed","inputs":[],"outputs":[{"name":"","type":"uint256","internalType":"uint256"}],"stateMutability":"view"},{"type":"function","name":"totalDeposits","inputs":[],"outputs":[{"name":"","type":"uint256","internalType":"uint256"}],"stateMutability":"view"},{"type":"function","name":"totalInterestEarned","inputs":[],"outputs":[{"name":"","type":"uint256","internalType":"uint256"}],"stateMutability":"view"},{"type":"function","name":"totalInterestPaid","inputs":[],"outputs":[{"name":"","type":"uint256","internalType":"uint256"}],"stateMutability":"view"},{"type":"function","name":"transferOwnership","inputs":[{"name":"newOwner","type":"address","internalType":"address"}],"outputs":[],"stateMutability":"nonpayable"},{"type":"function","name":"unpause","inputs":[],"outputs":[],"stateMutability":"nonpayable"},{"type":"function","name":"updateBorrowedAmount","inputs":[{"name":"newBorrowedAmount","type":"uint256","internalType":"uint256"}],"outputs":[],"stateMutability":"nonpayable"},{"type":"function","name":"usdt","inputs":[],"outputs":[{"name":"","type":"address","internalType":"contract IERC20"}],"stateMutability":"view"},{"type":"function","name":"userInterestPerDepositPaid","inputs":[{"name":"","type":"address","internalType":"address"}],"outputs":[{"name":"","type":"uint256","internalType":"uint256"}],"stateMutability":"view"},{"type":"function","name":"withdraw","inputs":[{"name":"amount","type":"uint256","internalType":"uint256"}],"outputs":[],"stateMutability":"nonpayable"},{"type":"event","name":"BorrowedAmountUpdated","inputs":[{"name":"oldAmount","type":"uint256","indexed":false,"internalType":"uint256"},{"name":"newAmount","type":"uint256","indexed":false,"internalType":"uint256"}],"anonymous":false},{"type":"event","name":"Deposited","inputs":[{"name":"lender","type":"address","indexed":true,"internalType":"address"},{"name":"amount","type":"uint256","indexed":false,"internalType":"uint256"},{"name":"timestamp","type":"uint256","indexed":false,"internalType":"uint256"}],"anonymous":false},{"type":"event","name":"InterestClaimed","inputs":[{"name":"lender","type":"address","indexed":true,"internalType":"address"},{"name":"amount","type":"uint256","indexed":false,"internalType":"uint256"},{"name":"timestamp","type":"uint256","indexed":false,"internalType":"uint256"}],"anonymous":false},{"type":"event","name":"LoanManagerUpdated","inputs":[{"name":"oldManager","type":"address","indexed":true,"internalType":"address"},{"name":"newManager","type":"address","indexed":true,"internalType":"address"}],"anonymous":false},{"type":"event","name":"OwnershipTransferred","inputs":[{"name":"previousOwner","type":"address","indexed":true,"internalType":"address"},{"name":"newOwner","type":"address","indexed":true,"internalType":"address"}],"anonymous":false},{"type":"event","name":"Paused","inputs":[{"name":"account","type":"address","indexed":false,"internalType":"address"}],"anonymous":false},{"type":"event","name":"Unpaused","inputs":[{"name":"account","type":"address","indexed":false,"internalType":"address"}],"anonymous":false},{"type":"event","name":"Withdrawn","inputs":[{"name":"lender","type":"address","indexed":true,"internalType":"address"},{"name":"amount","type":"uint256","indexed":false,"internalType":"uint256"},{"name":"timestamp","type":"uint256","indexed":false,"internalType":"uint256"}],"anonymous":false},{"type":"error","name":"EnforcedPause","inputs":[]},{"type":"error","name":"ExpectedPause","inputs":[]},{"type":"error","name":"OnlyLoanManager","inputs":[]},{"type":"error","name":"OwnableInvalidOwner","inputs":[{"name":"owner","type":"address","internalType":"address"}]},{"type":"error","name":"OwnableUnauthorizedAccount","inputs":[{"name":"account","type":"address","internalType":"address"}]},{"type":"error","name":"ReentrancyGuardReentrantCall","inputs":[]}],"bytecode":{"object":"0x60c060405234801561000f575f5ffd5b50604051612b35380380612b3583398181016040528101906100319190610372565b335f73ffffffffffffffffffffffffffffffffffffffff168173ffffffffffffffffffffffffffffffffffffffff16036100a2575f6040517f1e4fbdf700000000000000000000000000000000000000000000000000000000815260040161009991906103bf565b60405180910390fd5b6100b18161022160201b60201c565b5060016100d06100c56102e260201b60201c565b61030b60201b60201c565b5f01819055505f73ffffffffffffffffffffffffffffffffffffffff168273ffffffffffffffffffffffffffffffffffffffff1603610144576040517f08c379a000000000000000000000000000000000000000000000000000000000815260040161013b90610432565b60405180910390fd5b5f73ffffffffffffffffffffffffffffffffffffffff168173ffffffffffffffffffffffffffffffffffffffff16036101b2576040517f08c379a00000000000000000000000000000000000000000000000000000000081526004016101a9906104c0565b60405180910390fd5b8173ffffffffffffffffffffffffffffffffffffffff1660808173ffffffffffffffffffffffffffffffffffffffff16815250508073ffffffffffffffffffffffffffffffffffffffff1660a08173ffffffffffffffffffffffffffffffffffffffff168152505050506104de565b5f5f5f9054906101000a900473ffffffffffffffffffffffffffffffffffffffff169050815f5f6101000a81548173ffffffffffffffffffffffffffffffffffffffff021916908373ffffffffffffffffffffffffffffffffffffffff1602179055508173ffffffffffffffffffffffffffffffffffffffff168173ffffffffffffffffffffffffffffffffffffffff167f8be0079c531659141344cd1fd0a4f28419497f9722a3daafe3b4186f6b6457e060405160405180910390a35050565b5f7f9b779b17422d0df92223018b32b4d1fa46e071723d6817e2486d003becc55f005f1b905090565b5f819050919050565b5f5ffd5b5f73ffffffffffffffffffffffffffffffffffffffff82169050919050565b5f61034182610318565b9050919050565b61035181610337565b811461035b575f5ffd5b50565b5f8151905061036c81610348565b92915050565b5f5f6040838503121561038857610387610314565b5b5f6103958582860161035e565b92505060206103a68582860161035e565b9150509250929050565b6103b981610337565b82525050565b5f6020820190506103d25f8301846103b0565b92915050565b5f82825260208201905092915050565b7f4c656e64696e67506f6f6c3a207a65726f2055534454206164647265737300005f82015250565b5f61041c601e836103d8565b9150610427826103e8565b602082019050919050565b5f6020820190508181035f83015261044981610410565b9050919050565b7f4c656e64696e67506f6f6c3a207a65726f2063616c63756c61746f72206164645f8201527f7265737300000000000000000000000000000000000000000000000000000000602082015250565b5f6104aa6024836103d8565b91506104b582610450565b604082019050919050565b5f6020820190508181035f8301526104d78161049e565b9050919050565b60805160a0516125f761053e5f395f818161052c01528181610a820152818161100d01526110a701525f81816106c5015281816107fc0152818161093201528181610e8c0152818161114a0152818161131e015261151001526125f75ff3fe608060405234801561000f575f5ffd5b50600436106101cd575f3560e01c80637d88209711610102578063a610d0c0116100a0578063bbb851881161006f578063bbb8518814610489578063c8bea317146104ab578063f2fde38b146104db578063fc7e286d146104f7576101cd565b8063a610d0c014610415578063b3ccbcfe14610431578063b6b55f251461044f578063b7d93f341461046b576101cd565b80638c0243e7116100dc5780638c0243e71461039d5780638da5cb5b146103bb578063962ca496146103d95780639b745aec146103f7576101cd565b80637d882097146103595780638045850a146103775780638456cb5914610393576101cd565b80634a417a531161016f5780635772ae70116101495780635772ae70146102f95780635c975abb14610315578063715018a614610333578063779048131461033d576101cd565b80634a417a531461028b5780634c19386c146102a95780635287ce12146102c7576101cd565b80632f48ab7d116101ab5780632f48ab7d1461023b57806335981fd8146102595780633e7f74cd146102635780633f4ba83a14610281576101cd565b80630f7c4e16146101d157806328b7a9de146101ef5780632e1a7d4d1461021f575b5f5ffd5b6101d961052a565b6040516101e69190611dcb565b60405180910390f35b61020960048036038101906102049190611e23565b61054e565b6040516102169190611e66565b60405180910390f35b61023960048036038101906102349190611ea9565b610563565b005b6102436107fa565b6040516102509190611ef4565b60405180910390f35b61026161081e565b005b61026b610a67565b6040516102789190611e66565b60405180910390f35b610289610a6d565b005b610293610a7f565b6040516102a09190611e66565b60405180910390f35b6102b1610b23565b6040516102be9190611e66565b60405180910390f35b6102e160048036038101906102dc9190611e23565b610b29565b6040516102f093929190611f0d565b60405180910390f35b610313600480360381019061030e9190611e23565b610b8c565b005b61031d610cc5565b60405161032a9190611f5c565b60405180910390f35b61033b610cda565b005b61035760048036038101906103529190611ea9565b610ced565b005b610361610d3f565b60405161036e9190611e66565b60405180910390f35b610391600480360381019061038c9190611f75565b610d45565b005b61039b610fbf565b005b6103a5610fd1565b6040516103b29190611e66565b60405180910390f35b6103c3610fd7565b6040516103d09190611fc2565b60405180910390f35b6103e1610ffe565b6040516103ee9190611e66565b60405180910390f35b6103ff611146565b60405161040c9190611e66565b60405180910390f35b61042f600480360381019061042a9190611fdb565b6111e9565b005b61043961144e565b6040516104469190611fc2565b60405180910390f35b61046960048036038101906104649190611ea9565b611473565b005b610473611694565b6040516104809190611e66565b60405180910390f35b61049161169a565b6040516104a2959493929190612019565b60405180910390f35b6104c560048036038101906104c09190611e23565b6116ce565b6040516104d29190611e66565b60405180910390f35b6104f560048036038101906104f09190611e23565b61174c565b005b610511600480360381019061050c9190611e23565b6117d0565b604051610521949392919061206a565b60405180910390f35b7f000000000000000000000000000000000000000000000000000000000000000081565b6008602052805f5260405f205f915090505481565b61056b6117fc565b61057361181e565b5f81116105b5576040517f08c379a00000000000000000000000000000000000000000000000000000000081526004016105ac90612107565b60405180910390fd5b6105be3361185f565b5f60025f3373ffffffffffffffffffffffffffffffffffffffff1673ffffffffffffffffffffffffffffffffffffffff1681526020019081526020015f20905081815f01541015610644576040517f08c379a000000000000000000000000000000000000000000000000000000000815260040161063b90612195565b60405180910390fd5b5f61064d611146565b905082811015610692576040517f08c379a000000000000000000000000000000000000000000000000000000000815260040161068990612223565b60405180910390fd5b82825f015f8282546106a4919061226e565b925050819055508260035f8282546106bc919061226e565b925050819055507f000000000000000000000000000000000000000000000000000000000000000073ffffffffffffffffffffffffffffffffffffffff1663a9059cbb33856040518363ffffffff1660e01b815260040161071e9291906122a1565b6020604051808303815f875af115801561073a573d5f5f3e3d5ffd5b505050506040513d601f19601f8201168201806040525081019061075e91906122f2565b61079d576040517f08c379a000000000000000000000000000000000000000000000000000000000815260040161079490612367565b60405180910390fd5b3373ffffffffffffffffffffffffffffffffffffffff167f92ccf450a286a957af52509bc1c9939d1a6a481783e142e41e2499f0bb66ebc684426040516107e5929190612385565b60405180910390a250506107f7611912565b50565b7f000000000000000000000000000000000000000000000000000000000000000081565b6108266117fc565b61082e61181e565b6108373361185f565b5f60025f3373ffffffffffffffffffffffffffffffffffffffff1673ffffffffffffffffffffffffffffffffffffffff1681526020019081526020015f2090505f816003015490505f81116108c1576040517f08c379a00000000000000000000000000000000000000000000000000000000081526004016108b8906123f6565b60405180910390fd5b5f6108ca611146565b90508181101561090f576040517f08c379a000000000000000000000000000000000000000000000000000000000815260040161090690612223565b60405180910390fd5b5f83600301819055508160055f8282546109299190612414565b925050819055507f000000000000000000000000000000000000000000000000000000000000000073ffffffffffffffffffffffffffffffffffffffff1663a9059cbb33846040518363ffffffff1660e01b815260040161098b9291906122a1565b6020604051808303815f875af11580156109a7573d5f5f3e3d5ffd5b505050506040513d601f19601f820116820180604052508101906109cb91906122f2565b610a0a576040517f08c379a0000000000000000000000000000000000000000000000000000000008152600401610a0190612367565b60405180910390fd5b3373ffffffffffffffffffffffffffffffffffffffff167fd97872e737006a28639b9771e8c5b348e8bc19f39f0e0ad43ed2c997d03cd70d8342604051610a52929190612385565b60405180910390a2505050610a65611912565b565b60075481565b610a7561192c565b610a7d6119b3565b565b5f7f000000000000000000000000000000000000000000000000000000000000000073ffffffffffffffffffffffffffffffffffffffff16636cf9c5856004546003546040518363ffffffff1660e01b8152600401610adf929190612385565b602060405180830381865afa158015610afa573d5f5f3e3d5ffd5b505050506040513d601f19601f82011682018060405250810190610b1e919061245b565b905090565b60045481565b5f5f5f5f60025f8673ffffffffffffffffffffffffffffffffffffffff1673ffffffffffffffffffffffffffffffffffffffff1681526020019081526020015f209050805f01548160010154610b7e876116ce565b935093509350509193909250565b610b9461192c565b5f73ffffffffffffffffffffffffffffffffffffffff168173ffffffffffffffffffffffffffffffffffffffff1603610c02576040517f08c379a0000000000000000000000000000000000000000000000000000000008152600401610bf9906124d0565b60405180910390fd5b5f60015f9054906101000a900473ffffffffffffffffffffffffffffffffffffffff1690508160015f6101000a81548173ffffffffffffffffffffffffffffffffffffffff021916908373ffffffffffffffffffffffffffffffffffffffff1602179055508173ffffffffffffffffffffffffffffffffffffffff168173ffffffffffffffffffffffffffffffffffffffff167ffdf6314fb555cec5a13bf6516f91ba9c16633352a4b520c6fdbde4f0ce21349d60405160405180910390a35050565b5f5f60149054906101000a900460ff16905090565b610ce261192c565b610ceb5f611a14565b565b610cf561192c565b5f6004549050816004819055507f99252e7c28ee190698bbf2872067547e81baaf03e0d275c5e02fe3768993001f8183604051610d33929190612385565b60405180910390a15050565b60035481565b60015f9054906101000a900473ffffffffffffffffffffffffffffffffffffffff1673ffffffffffffffffffffffffffffffffffffffff163373ffffffffffffffffffffffffffffffffffffffff1614610dcb576040517f757af6ab00000000000000000000000000000000000000000000000000000000815260040160405180910390fd5b610dd36117fc565b5f8211610e15576040517f08c379a0000000000000000000000000000000000000000000000000000000008152600401610e0c90612107565b60405180910390fd5b5f8183610e22919061226e565b90506004548111610e4a578060045f828254610e3e919061226e565b92505081905550610e52565b5f6004819055505b8160055f828254610e639190612414565b925050819055505f82118015610e7a57505f600354115b15610e8957610e8882611ad5565b5b5f7f000000000000000000000000000000000000000000000000000000000000000073ffffffffffffffffffffffffffffffffffffffff166323b872dd3330876040518463ffffffff1660e01b8152600401610ee7939291906124ee565b6020604051808303815f875af1158015610f03573d5f5f3e3d5ffd5b505050506040513d601f19601f82011682018060405250810190610f2791906122f2565b905080610f69576040517f08c379a0000000000000000000000000000000000000000000000000000000008152600401610f6090612367565b60405180910390fd5b7f99252e7c28ee190698bbf2872067547e81baaf03e0d275c5e02fe3768993001f82600454610f989190612414565b600454604051610fa9929190612385565b60405180910390a15050610fbb611912565b5050565b610fc761192c565b610fcf611b38565b565b60055481565b5f5f5f9054906101000a900473ffffffffffffffffffffffffffffffffffffffff16905090565b5f5f611008610a7f565b90505f7f000000000000000000000000000000000000000000000000000000000000000073ffffffffffffffffffffffffffffffffffffffff1663e0bf2117836040518263ffffffff1660e01b81526004016110649190611e66565b602060405180830381865afa15801561107f573d5f5f3e3d5ffd5b505050506040513d601f19601f820116820180604052508101906110a3919061245b565b90507f000000000000000000000000000000000000000000000000000000000000000073ffffffffffffffffffffffffffffffffffffffff16634bc1dca883836040518363ffffffff1660e01b8152600401611100929190612385565b602060405180830381865afa15801561111b573d5f5f3e3d5ffd5b505050506040513d601f19601f8201168201806040525081019061113f919061245b565b9250505090565b5f5f7f000000000000000000000000000000000000000000000000000000000000000073ffffffffffffffffffffffffffffffffffffffff166370a08231306040518263ffffffff1660e01b81526004016111a19190611fc2565b602060405180830381865afa1580156111bc573d5f5f3e3d5ffd5b505050506040513d601f19601f820116820180604052508101906111e0919061245b565b90508091505090565b60015f9054906101000a900473ffffffffffffffffffffffffffffffffffffffff1673ffffffffffffffffffffffffffffffffffffffff163373ffffffffffffffffffffffffffffffffffffffff161461126f576040517f757af6ab00000000000000000000000000000000000000000000000000000000815260040160405180910390fd5b6112776117fc565b5f81116112b9576040517f08c379a00000000000000000000000000000000000000000000000000000000081526004016112b090612107565b60405180910390fd5b806112c2611146565b1015611303576040517f08c379a00000000000000000000000000000000000000000000000000000000081526004016112fa90612223565b60405180910390fd5b8060045f8282546113149190612414565b925050819055505f7f000000000000000000000000000000000000000000000000000000000000000073ffffffffffffffffffffffffffffffffffffffff1663a9059cbb84846040518363ffffffff1660e01b81526004016113779291906122a1565b6020604051808303815f875af1158015611393573d5f5f3e3d5ffd5b505050506040513d601f19601f820116820180604052508101906113b791906122f2565b9050806113f9576040517f08c379a00000000000000000000000000000000000000000000000000000000081526004016113f090612367565b60405180910390fd5b7f99252e7c28ee190698bbf2872067547e81baaf03e0d275c5e02fe3768993001f82600454611428919061226e565b600454604051611439929190612385565b60405180910390a15061144a611912565b5050565b60015f9054906101000a900473ffffffffffffffffffffffffffffffffffffffff1681565b61147b6117fc565b61148361181e565b5f81116114c5576040517f08c379a00000000000000000000000000000000000000000000000000000000081526004016114bc90612107565b60405180910390fd5b6114ce3361185f565b5f60025f3373ffffffffffffffffffffffffffffffffffffffff1673ffffffffffffffffffffffffffffffffffffffff1681526020019081526020015f2090507f000000000000000000000000000000000000000000000000000000000000000073ffffffffffffffffffffffffffffffffffffffff166323b872dd3330856040518463ffffffff1660e01b815260040161156b939291906124ee565b6020604051808303815f875af1158015611587573d5f5f3e3d5ffd5b505050506040513d601f19601f820116820180604052508101906115ab91906122f2565b6115ea576040517f08c379a00000000000000000000000000000000000000000000000000000000081526004016115e190612367565b60405180910390fd5b5f815f015403611607574281600101819055504281600201819055505b81815f015f8282546116199190612414565b925050819055508160035f8282546116319190612414565b925050819055503373ffffffffffffffffffffffffffffffffffffffff167f73a19dd210f1a7f902193214c0ee91dd35ee5b4d920cba8d519eca65a7b488ca8342604051611680929190612385565b60405180910390a250611691611912565b50565b60065481565b5f5f5f5f5f6003546004546116ad611146565b6116b5610a7f565b6116bd610ffe565b945094509450945094509091929394565b5f5f60025f8473ffffffffffffffffffffffffffffffffffffffff1673ffffffffffffffffffffffffffffffffffffffff1681526020019081526020015f2090505f815f015403611726578060030154915050611747565b5f61173084611b9a565b90508082600301546117429190612414565b925050505b919050565b61175461192c565b5f73ffffffffffffffffffffffffffffffffffffffff168173ffffffffffffffffffffffffffffffffffffffff16036117c4575f6040517f1e4fbdf70000000000000000000000000000000000000000000000000000000081526004016117bb9190611fc2565b60405180910390fd5b6117cd81611a14565b50565b6002602052805f5260405f205f91509050805f0154908060010154908060020154908060030154905084565b611804611c7b565b6002611816611811611cbc565b611ce5565b5f0181905550565b611826610cc5565b1561185d576040517fd93c066500000000000000000000000000000000000000000000000000000000815260040160405180910390fd5b565b5f61186982611b9a565b90505f8111156118ca578060025f8473ffffffffffffffffffffffffffffffffffffffff1673ffffffffffffffffffffffffffffffffffffffff1681526020019081526020015f206003015f8282546118c29190612414565b925050819055505b60075460085f8473ffffffffffffffffffffffffffffffffffffffff1673ffffffffffffffffffffffffffffffffffffffff1681526020019081526020015f20819055505050565b600161192461191f611cbc565b611ce5565b5f0181905550565b611934611cee565b73ffffffffffffffffffffffffffffffffffffffff16611952610fd7565b73ffffffffffffffffffffffffffffffffffffffff16146119b157611975611cee565b6040517f118cdaa70000000000000000000000000000000000000000000000000000000081526004016119a89190611fc2565b60405180910390fd5b565b6119bb611cf5565b5f5f60146101000a81548160ff0219169083151502179055507f5db9ee0a495bf2e6ff9c91a7834c1ba4fdd244a5e8aa4e537bd38aeae4b073aa6119fd611cee565b604051611a0a9190611fc2565b60405180910390a1565b5f5f5f9054906101000a900473ffffffffffffffffffffffffffffffffffffffff169050815f5f6101000a81548173ffffffffffffffffffffffffffffffffffffffff021916908373ffffffffffffffffffffffffffffffffffffffff1602179055508173ffffffffffffffffffffffffffffffffffffffff168173ffffffffffffffffffffffffffffffffffffffff167f8be0079c531659141344cd1fd0a4f28419497f9722a3daafe3b4186f6b6457e060405160405180910390a35050565b5f6003541115611b35575f600354670de0b6b3a764000083611af79190612523565b611b019190612591565b90508060075f828254611b149190612414565b925050819055508160065f828254611b2c9190612414565b92505081905550505b50565b611b4061181e565b60015f60146101000a81548160ff0219169083151502179055507f62e78cea01bee320cd4e420270b5ea74000d11b0c9f74754ebdbfc544b05a258611b83611cee565b604051611b909190611fc2565b60405180910390a1565b5f5f60025f8473ffffffffffffffffffffffffffffffffffffffff1673ffffffffffffffffffffffffffffffffffffffff1681526020019081526020015f2090505f815f015403611bee575f915050611c76565b5f60075490505f60085f8673ffffffffffffffffffffffffffffffffffffffff1673ffffffffffffffffffffffffffffffffffffffff1681526020019081526020015f2054905080821115611c72575f8183611c4a919061226e565b9050670de0b6b3a764000081855f0154611c649190612523565b611c6e9190612591565b9450505b5050505b919050565b611c83611d35565b15611cba576040517f3ee5aeb500000000000000000000000000000000000000000000000000000000815260040160405180910390fd5b565b5f7f9b779b17422d0df92223018b32b4d1fa46e071723d6817e2486d003becc55f005f1b905090565b5f819050919050565b5f33905090565b611cfd610cc5565b611d33576040517f8dfc202b00000000000000000000000000000000000000000000000000000000815260040160405180910390fd5b565b5f6002611d48611d43611cbc565b611ce5565b5f015414905090565b5f73ffffffffffffffffffffffffffffffffffffffff82169050919050565b5f819050919050565b5f611d93611d8e611d8984611d51565b611d70565b611d51565b9050919050565b5f611da482611d79565b9050919050565b5f611db582611d9a565b9050919050565b611dc581611dab565b82525050565b5f602082019050611dde5f830184611dbc565b92915050565b5f5ffd5b5f611df282611d51565b9050919050565b611e0281611de8565b8114611e0c575f5ffd5b50565b5f81359050611e1d81611df9565b92915050565b5f60208284031215611e3857611e37611de4565b5b5f611e4584828501611e0f565b91505092915050565b5f819050919050565b611e6081611e4e565b82525050565b5f602082019050611e795f830184611e57565b92915050565b611e8881611e4e565b8114611e92575f5ffd5b50565b5f81359050611ea381611e7f565b92915050565b5f60208284031215611ebe57611ebd611de4565b5b5f611ecb84828501611e95565b91505092915050565b5f611ede82611d9a565b9050919050565b611eee81611ed4565b82525050565b5f602082019050611f075f830184611ee5565b92915050565b5f606082019050611f205f830186611e57565b611f2d6020830185611e57565b611f3a6040830184611e57565b949350505050565b5f8115159050919050565b611f5681611f42565b82525050565b5f602082019050611f6f5f830184611f4d565b92915050565b5f5f60408385031215611f8b57611f8a611de4565b5b5f611f9885828601611e95565b9250506020611fa985828601611e95565b9150509250929050565b611fbc81611de8565b82525050565b5f602082019050611fd55f830184611fb3565b92915050565b5f5f60408385031215611ff157611ff0611de4565b5b5f611ffe85828601611e0f565b925050602061200f85828601611e95565b9150509250929050565b5f60a08201905061202c5f830188611e57565b6120396020830187611e57565b6120466040830186611e57565b6120536060830185611e57565b6120606080830184611e57565b9695505050505050565b5f60808201905061207d5f830187611e57565b61208a6020830186611e57565b6120976040830185611e57565b6120a46060830184611e57565b95945050505050565b5f82825260208201905092915050565b7f4c656e64696e67506f6f6c3a207a65726f20616d6f756e7400000000000000005f82015250565b5f6120f16018836120ad565b91506120fc826120bd565b602082019050919050565b5f6020820190508181035f83015261211e816120e5565b9050919050565b7f4c656e64696e67506f6f6c3a20696e73756666696369656e742062616c616e635f8201527f6500000000000000000000000000000000000000000000000000000000000000602082015250565b5f61217f6021836120ad565b915061218a82612125565b604082019050919050565b5f6020820190508181035f8301526121ac81612173565b9050919050565b7f4c656e64696e67506f6f6c3a20696e73756666696369656e74206c69717569645f8201527f6974790000000000000000000000000000000000000000000000000000000000602082015250565b5f61220d6023836120ad565b9150612218826121b3565b604082019050919050565b5f6020820190508181035f83015261223a81612201565b9050919050565b7f4e487b71000000000000000000000000000000000000000000000000000000005f52601160045260245ffd5b5f61227882611e4e565b915061228383611e4e565b925082820390508181111561229b5761229a612241565b5b92915050565b5f6040820190506122b45f830185611fb3565b6122c16020830184611e57565b9392505050565b6122d181611f42565b81146122db575f5ffd5b50565b5f815190506122ec816122c8565b92915050565b5f6020828403121561230757612306611de4565b5b5f612314848285016122de565b91505092915050565b7f4c656e64696e67506f6f6c3a207472616e73666572206661696c6564000000005f82015250565b5f612351601c836120ad565b915061235c8261231d565b602082019050919050565b5f6020820190508181035f83015261237e81612345565b9050919050565b5f6040820190506123985f830185611e57565b6123a56020830184611e57565b9392505050565b7f4c656e64696e67506f6f6c3a206e6f20696e74657265737400000000000000005f82015250565b5f6123e06018836120ad565b91506123eb826123ac565b602082019050919050565b5f6020820190508181035f83015261240d816123d4565b9050919050565b5f61241e82611e4e565b915061242983611e4e565b925082820190508082111561244157612440612241565b5b92915050565b5f8151905061245581611e7f565b92915050565b5f602082840312156124705761246f611de4565b5b5f61247d84828501612447565b91505092915050565b7f4c656e64696e67506f6f6c3a207a65726f2061646472657373000000000000005f82015250565b5f6124ba6019836120ad565b91506124c582612486565b602082019050919050565b5f6020820190508181035f8301526124e7816124ae565b9050919050565b5f6060820190506125015f830186611fb3565b61250e6020830185611fb3565b61251b6040830184611e57565b949350505050565b5f61252d82611e4e565b915061253883611e4e565b925082820261254681611e4e565b9150828204841483151761255d5761255c612241565b5b5092915050565b7f4e487b71000000000000000000000000000000000000000000000000000000005f52601260045260245ffd5b5f61259b82611e4e565b91506125a683611e4e565b9250826125b6576125b5612564565b5b82820490509291505056fea2646970667358221220bfd4a561ac75b0a35730ae7ccf219ce77126f2849acf3681060a04b36a4877c864736f6c634300081e0033","linkReferences":{}},"methodIdentifiers":{"borrowFromPool(address,uint256)":"a610d0c0","calculatePendingInterest(address)":"c8bea317","claimInterest()":"35981fd8","deposit(uint256)":"b6b55f25","deposits(address)":"fc7e286d","getAvailableLiquidity()":"9b745aec","getCurrentAPY()":"962ca496","getDepositInfo(address)":"5287ce12","getPoolStats()":"bbb85188","getUtilizationRate()":"4a417a53","interestCalculator()":"0f7c4e16","interestPerDepositStored()":"3e7f74cd","loanManager()":"b3ccbcfe","owner()":"8da5cb5b","pause()":"8456cb59","paused()":"5c975abb","renounceOwnership()":"715018a6","repayToPool(uint256,uint256)":"8045850a","setLoanManager(address)":"5772ae70","totalBorrowed()":"4c19386c","totalDeposits()":"7d882097","totalInterestEarned()":"b7d93f34","totalInterestPaid()":"8c0243e7","transferOwnership(address)":"f2fde38b","unpause()":"3f4ba83a","updateBorrowedAmount(uint256)":"77904813","usdt()":"2f48ab7d","userInterestPerDepositPaid(address)":"28b7a9de","withdraw(uint256)":"2e1a7d4d"},"id":31}