{"abi":[{"type":"constructor","inputs":[{"name":"_usdt","type":"address","internalType":"address"},{"name":"_collateralManager","type":"address","internalType":"address"},{"name":"_interestCalculator","type":"address","internalType":"address"},{"name":"_creditScore","type":"address","internalType":"address"},{"name":"_lendingPool","type":"address","internalType":"address"},{"name":"_protocolTreasury","type":"address","internalType":"address"}],"stateMutability":"nonpayable"},{"type":"receive","stateMutability":"payable"},{"type":"function","name":"LIQUIDATION_GRACE_PERIOD","inputs":[],"outputs":[{"name":"","type":"uint256","internalType":"uint256"}],"stateMutability":"view"},{"type":"function","name":"MAX_LOAN_DURATION","inputs":[],"outputs":[{"name":"","type":"uint256","internalType":"uint256"}],"stateMutability":"view"},{"type":"function","name":"MIN_LOAN_AMOUNT","inputs":[],"outputs":[{"name":"","type":"uint256","internalType":"uint256"}],"stateMutability":"view"},{"type":"function","name":"MIN_LOAN_DURATION","inputs":[],"outputs":[{"name":"","type":"uint256","internalType":"uint256"}],"stateMutability":"view"},{"type":"function","name":"PROTOCOL_FEE_PERCENTAGE","inputs":[],"outputs":[{"name":"","type":"uint256","internalType":"uint256"}],"stateMutability":"view"},{"type":"function","name":"collateralManager","inputs":[],"outputs":[{"name":"","type":"address","internalType":"contract CollateralManager"}],"stateMutability":"view"},{"type":"function","name":"createLoanWithEth","inputs":[{"name":"amount","type":"uint256","internalType":"uint256"},{"name":"loanType","type":"uint8","internalType":"enum InterestCalculator.LoanType"},{"name":"durationDays","type":"uint256","internalType":"uint256"}],"outputs":[],"stateMutability":"payable"},{"type":"function","name":"createLoanWithUsdt","inputs":[{"name":"amount","type":"uint256","internalType":"uint256"},{"name":"collateralAmount","type":"uint256","internalType":"uint256"},{"name":"loanType","type":"uint8","internalType":"enum InterestCalculator.LoanType"},{"name":"durationDays","type":"uint256","internalType":"uint256"}],"outputs":[],"stateMutability":"nonpayable"},{"type":"function","name":"creditScore","inputs":[],"outputs":[{"name":"","type":"address","internalType":"contract CreditScore"}],"stateMutability":"view"},{"type":"function","name":"defaultLoan","inputs":[{"name":"loanId","type":"uint256","internalType":"uint256"}],"outputs":[],"stateMutability":"nonpayable"},{"type":"function","name":"getActiveLoanCount","inputs":[{"name":"user","type":"address","internalType":"address"}],"outputs":[{"name":"count","type":"uint256","internalType":"uint256"}],"stateMutability":"view"},{"type":"function","name":"getLoan","inputs":[{"name":"loanId","type":"uint256","internalType":"uint256"}],"outputs":[{"name":"","type":"tuple","internalType":"struct LoanManager.Loan","components":[{"name":"borrower","type":"address","internalType":"address"},{"name":"amount","type":"uint256","internalType":"uint256"},{"name":"collateralAmount","type":"uint256","internalType":"uint256"},{"name":"collateralType","type":"uint8","internalType":"enum CollateralManager.CollateralType"},{"name":"loanType","type":"uint8","internalType":"enum InterestCalculator.LoanType"},{"name":"interestRate","type":"uint256","internalType":"uint256"},{"name":"durationDays","type":"uint256","internalType":"uint256"},{"name":"startTime","type":"uint256","internalType":"uint256"},{"name":"dueDate","type":"uint256","internalType":"uint256"},{"name":"totalRepaid","type":"uint256","internalType":"uint256"},{"name":"status","type":"uint8","internalType":"enum LoanManager.LoanStatus"}]}],"stateMutability":"view"},{"type":"function","name":"getOutstandingAmount","inputs":[{"name":"loanId","type":"uint256","internalType":"uint256"}],"outputs":[{"name":"","type":"uint256","internalType":"uint256"}],"stateMutability":"view"},{"type":"function","name":"getProtocolFeeInfo","inputs":[],"outputs":[{"name":"feePercentage","type":"uint256","internalType":"uint256"},{"name":"feesCollected","type":"uint256","internalType":"uint256"},{"name":"treasury","type":"address","internalType":"address"}],"stateMutability":"view"},{"type":"function","name":"getTotalDue","inputs":[{"name":"loanId","type":"uint256","internalType":"uint256"}],"outputs":[{"name":"","type":"uint256","internalType":"uint256"}],"stateMutability":"view"},{"type":"function","name":"getUserLoans","inputs":[{"name":"user","type":"address","internalType":"address"}],"outputs":[{"name":"","type":"uint256[]","internalType":"uint256[]"}],"stateMutability":"view"},{"type":"function","name":"interestCalculator","inputs":[],"outputs":[{"name":"","type":"address","internalType":"contract InterestCalculator"}],"stateMutability":"view"},{"type":"function","name":"isOverdue","inputs":[{"name":"loanId","type":"uint256","internalType":"uint256"}],"outputs":[{"name":"","type":"bool","internalType":"bool"}],"stateMutability":"view"},{"type":"function","name":"lendingPool","inputs":[],"outputs":[{"name":"","type":"address","internalType":"contract LendingPool"}],"stateMutability":"view"},{"type":"function","name":"loanCounter","inputs":[],"outputs":[{"name":"","type":"uint256","internalType":"uint256"}],"stateMutability":"view"},{"type":"function","name":"loans","inputs":[{"name":"","type":"uint256","internalType":"uint256"}],"outputs":[{"name":"borrower","type":"address","internalType":"address"},{"name":"amount","type":"uint256","internalType":"uint256"},{"name":"collateralAmount","type":"uint256","internalType":"uint256"},{"name":"collateralType","type":"uint8","internalType":"enum CollateralManager.CollateralType"},{"name":"loanType","type":"uint8","internalType":"enum InterestCalculator.LoanType"},{"name":"interestRate","type":"uint256","internalType":"uint256"},{"name":"durationDays","type":"uint256","internalType":"uint256"},{"name":"startTime","type":"uint256","internalType":"uint256"},{"name":"dueDate","type":"uint256","internalType":"uint256"},{"name":"totalRepaid","type":"uint256","internalType":"uint256"},{"name":"status","type":"uint8","internalType":"enum LoanManager.LoanStatus"}],"stateMutability":"view"},{"type":"function","name":"owner","inputs":[],"outputs":[{"name":"","type":"address","internalType":"address"}],"stateMutability":"view"},{"type":"function","name":"pause","inputs":[],"outputs":[],"stateMutability":"nonpayable"},{"type":"function","name":"paused","inputs":[],"outputs":[{"name":"","type":"bool","internalType":"bool"}],"stateMutability":"view"},{"type":"function","name":"protocolTreasury","inputs":[],"outputs":[{"name":"","type":"address","internalType":"address"}],"stateMutability":"view"},{"type":"function","name":"renounceOwnership","inputs":[],"outputs":[],"stateMutability":"nonpayable"},{"type":"function","name":"repayLoan","inputs":[{"name":"loanId","type":"uint256","internalType":"uint256"},{"name":"amount","type":"uint256","internalType":"uint256"}],"outputs":[],"stateMutability":"nonpayable"},{"type":"function","name":"totalProtocolFeesCollected","inputs":[],"outputs":[{"name":"","type":"uint256","internalType":"uint256"}],"stateMutability":"view"},{"type":"function","name":"transferOwnership","inputs":[{"name":"newOwner","type":"address","internalType":"address"}],"outputs":[],"stateMutability":"nonpayable"},{"type":"function","name":"unpause","inputs":[],"outputs":[],"stateMutability":"nonpayable"},{"type":"function","name":"updateProtocolTreasury","inputs":[{"name":"newTreasury","type":"address","internalType":"address"}],"outputs":[],"stateMutability":"nonpayable"},{"type":"function","name":"usdt","inputs":[],"outputs":[{"name":"","type":"address","internalType":"contract IERC20"}],"stateMutability":"view"},{"type":"function","name":"userLoans","inputs":[{"name":"","type":"address","internalType":"address"},{"name":"","type":"uint256","internalType":"uint256"}],"outputs":[{"name":"","type":"uint256","internalType":"uint256"}],"stateMutability":"view"},{"type":"function","name":"withdrawProtocolFees","inputs":[],"outputs":[],"stateMutability":"nonpayable"},{"type":"event","name":"LoanCompleted","inputs":[{"name":"loanId","type":"uint256","indexed":true,"internalType":"uint256"},{"name":"borrower","type":"address","indexed":true,"internalType":"address"},{"name":"totalAmount","type":"uint256","indexed":false,"internalType":"uint256"}],"anonymous":false},{"type":"event","name":"LoanCreated","inputs":[{"name":"loanId","type":"uint256","indexed":true,"internalType":"uint256"},{"name":"borrower","type":"address","indexed":true,"internalType":"address"},{"name":"amount","type":"uint256","indexed":false,"internalType":"uint256"},{"name":"collateralAmount","type":"uint256","indexed":false,"internalType":"uint256"},{"name":"loanType","type":"uint8","indexed":false,"internalType":"enum InterestCalculator.LoanType"},{"name":"durationDays","type":"uint256","indexed":false,"internalType":"uint256"}],"anonymous":false},{"type":"event","name":"LoanDefaulted","inputs":[{"name":"loanId","type":"uint256","indexed":true,"internalType":"uint256"},{"name":"borrower","type":"address","indexed":true,"internalType":"address"},{"name":"outstandingAmount","type":"uint256","indexed":false,"internalType":"uint256"}],"anonymous":false},{"type":"event","name":"LoanRepaid","inputs":[{"name":"loanId","type":"uint256","indexed":true,"internalType":"uint256"},{"name":"borrower","type":"address","indexed":true,"internalType":"address"},{"name":"amount","type":"uint256","indexed":false,"internalType":"uint256"},{"name":"totalRepaid","type":"uint256","indexed":false,"internalType":"uint256"}],"anonymous":false},{"type":"event","name":"OwnershipTransferred","inputs":[{"name":"previousOwner","type":"address","indexed":true,"internalType":"address"},{"name":"newOwner","type":"address","indexed":true,"internalType":"address"}],"anonymous":false},{"type":"event","name":"Paused","inputs":[{"name":"account","type":"address","indexed":false,"internalType":"address"}],"anonymous":false},{"type":"event","name":"ProtocolFeeCollected","inputs":[{"name":"loanId","type":"uint256","indexed":true,"internalType":"uint256"},{"name":"feeAmount","type":"uint256","indexed":false,"internalType":"uint256"},{"name":"totalCollected","type":"uint256","indexed":false,"internalType":"uint256"}],"anonymous":false},{"type":"event","name":"ProtocolFeesWithdrawn","inputs":[{"name":"treasury","type":"address","indexed":true,"internalType":"address"},{"name":"amount","type":"uint256","indexed":false,"internalType":"uint256"}],"anonymous":false},{"type":"event","name":"ProtocolTreasuryUpdated","inputs":[{"name":"oldTreasury","type":"address","indexed":true,"internalType":"address"},{"name":"newTreasury","type":"address","indexed":true,"internalType":"address"}],"anonymous":false},{"type":"event","name":"Unpaused","inputs":[{"name":"account","type":"address","indexed":false,"internalType":"address"}],"anonymous":false},{"type":"error","name":"EnforcedPause","inputs":[]},{"type":"error","name":"ExpectedPause","inputs":[]},{"type":"error","name":"InsufficientCollateral","inputs":[]},{"type":"error","name":"InsufficientPoolLiquidity","inputs":[]},{"type":"error","name":"InsufficientRepayment","inputs":[]},{"type":"error","name":"InvalidDuration","inputs":[]},{"type":"error","name":"InvalidLoanAmount","inputs":[]},{"type":"error","name":"InvalidLoanId","inputs":[]},{"type":"error","name":"InvalidTreasuryAddress","inputs":[]},{"type":"error","name":"LoanAlreadyRepaid","inputs":[]},{"type":"error","name":"LoanNotActive","inputs":[]},{"type":"error","name":"LoanNotDue","inputs":[]},{"type":"error","name":"NoFeesToWithdraw","inputs":[]},{"type":"error","name":"NotLoanBorrower","inputs":[]},{"type":"error","name":"OwnableInvalidOwner","inputs":[{"name":"owner","type":"address","internalType":"address"}]},{"type":"error","name":"OwnableUnauthorizedAccount","inputs":[{"name":"account","type":"address","internalType":"address"}]},{"type":"error","name":"ReentrancyGuardReentrantCall","inputs":[]}],"bytecode":{"object":"0x610120604052348015610010575f5ffd5b506040516147e33803806147e3833981810160405281019061003291906103df565b33600161005161004661028c60201b60201c565b6102b560201b60201c565b5f01819055505f73ffffffffffffffffffffffffffffffffffffffff168173ffffffffffffffffffffffffffffffffffffffff16036100c7575f6040517f1e4fbdf70000000000000000000000000000000000000000000000000000000081526004016100be9190610477565b60405180910390fd5b6100d6816102be60201b60201c565b505f73ffffffffffffffffffffffffffffffffffffffff168173ffffffffffffffffffffffffffffffffffffffff160361013c576040517fcfe2ea6300000000000000000000000000000000000000000000000000000000815260040160405180910390fd5b8573ffffffffffffffffffffffffffffffffffffffff1660808173ffffffffffffffffffffffffffffffffffffffff16815250508473ffffffffffffffffffffffffffffffffffffffff1660a08173ffffffffffffffffffffffffffffffffffffffff16815250508373ffffffffffffffffffffffffffffffffffffffff1660c08173ffffffffffffffffffffffffffffffffffffffff16815250508273ffffffffffffffffffffffffffffffffffffffff1660e08173ffffffffffffffffffffffffffffffffffffffff16815250508173ffffffffffffffffffffffffffffffffffffffff166101008173ffffffffffffffffffffffffffffffffffffffff16815250508060045f6101000a81548173ffffffffffffffffffffffffffffffffffffffff021916908373ffffffffffffffffffffffffffffffffffffffff160217905550505050505050610490565b5f7f9b779b17422d0df92223018b32b4d1fa46e071723d6817e2486d003becc55f005f1b905090565b5f819050919050565b5f5f60019054906101000a900473ffffffffffffffffffffffffffffffffffffffff169050815f60016101000a81548173ffffffffffffffffffffffffffffffffffffffff021916908373ffffffffffffffffffffffffffffffffffffffff1602179055508173ffffffffffffffffffffffffffffffffffffffff168173ffffffffffffffffffffffffffffffffffffffff167f8be0079c531659141344cd1fd0a4f28419497f9722a3daafe3b4186f6b6457e060405160405180910390a35050565b5f5ffd5b5f73ffffffffffffffffffffffffffffffffffffffff82169050919050565b5f6103ae82610385565b9050919050565b6103be816103a4565b81146103c8575f5ffd5b50565b5f815190506103d9816103b5565b92915050565b5f5f5f5f5f5f60c087890312156103f9576103f8610381565b5b5f61040689828a016103cb565b965050602061041789828a016103cb565b955050604061042889828a016103cb565b945050606061043989828a016103cb565b935050608061044a89828a016103cb565b92505060a061045b89828a016103cb565b9150509295509295509295565b610471816103a4565b82525050565b5f60208201905061048a5f830184610468565b92915050565b60805160a05160c05160e0516101005161423d6105a65f395f8181610ca7015281816111da01528181611d41015281816121b40152818161278b0152818161280b0152612ba701525f8181610d6d01528181610e070152818161126201528181611302015281816119f901528181611e0701528181611ea10152818161223c015261295201525f818161086c01528181610b7c01528181611130015281816114a3015281816118530152818161210b01526124b601525f81816109b401528181611023015281816110a30152818161194f01528181611fa90152818161203601526128ca01525f8181610c6801528181610f4901528181610fe701528181611bf701528181612598015261274f015261423d5ff3fe6080604052600436106101fc575f3560e01c8063715018a61161010c5780638da5cb5b1161009f578063d22a0d0f1161006e578063d22a0d0f146106bf578063d8bad5bd146106fb578063e1ec3c6814610737578063e4d7d6dc1461077d578063f2fde38b146107a757610203565b80638da5cb5b14610619578063926f86ce1461064357806396fa212f1461066b578063a59a99731461069557610203565b80638795cccb116100db5780638795cccb1461059557806388db21ae146105ab57806389d99a05146105c75780638a700b53146105f157610203565b8063715018a6146105155780637394e6271461052b578063803db96d146105555780638456cb591461057f57610203565b806334d9289e1161018f578063504006ca1161015e578063504006ca1461043157806355acde0c1461046d5780635c975abb1461049757806367bf61c4146104c1578063695639b7146104e957610203565b806334d9289e1461038b57806339da3152146103b55780633f4ba83a146103df5780634f4cf428146103f557610203565b806323be345c116101cb57806323be345c146102d357806328e37043146102fd5780632f48ab7d146103395780633107cf701461036357610203565b806302bf321f146102075780630d0b2ca6146102435780630f7c4e161461026d5780632391411a1461029757610203565b3661020357005b5f5ffd5b348015610212575f5ffd5b5061022d6004803603810190610228919061366a565b6107cf565b60405161023a9190613755565b60405180910390f35b34801561024e575f5ffd5b50610257610862565b6040516102649190613784565b60405180910390f35b348015610278575f5ffd5b5061028161086a565b60405161028e91906137f8565b60405180910390f35b3480156102a2575f5ffd5b506102bd60048036038101906102b8919061366a565b61088e565b6040516102ca9190613784565b60405180910390f35b3480156102de575f5ffd5b506102e76109b2565b6040516102f49190613842565b60405180910390f35b348015610308575f5ffd5b50610323600480360381019061031e9190613885565b6109d6565b6040516103309190613784565b60405180910390f35b348015610344575f5ffd5b5061034d610c66565b60405161035a91906138d0565b60405180910390f35b34801561036e575f5ffd5b506103896004803603810190610384919061390c565b610c8a565b005b348015610396575f5ffd5b5061039f6112fa565b6040516103ac9190613784565b60405180910390f35b3480156103c0575f5ffd5b506103c9611300565b6040516103d69190613990565b60405180910390f35b3480156103ea575f5ffd5b506103f3611324565b005b348015610400575f5ffd5b5061041b60048036038101906104169190613885565b611336565b6040516104289190613784565b60405180910390f35b34801561043c575f5ffd5b5061045760048036038101906104529190613885565b611564565b6040516104649190613b96565b60405180910390f35b348015610478575f5ffd5b506104816116d9565b60405161048e9190613784565b60405180910390f35b3480156104a2575f5ffd5b506104ab6116e0565b6040516104b89190613bca565b60405180910390f35b3480156104cc575f5ffd5b506104e760048036038101906104e29190613885565b6116f4565b005b3480156104f4575f5ffd5b506104fd611b21565b60405161050c93929190613bf2565b60405180910390f35b348015610520575f5ffd5b50610529611b57565b005b348015610536575f5ffd5b5061053f611b6a565b60405161054c9190613784565b60405180910390f35b348015610560575f5ffd5b50610569611b70565b6040516105769190613c27565b60405180910390f35b34801561058a575f5ffd5b50610593611b95565b005b3480156105a0575f5ffd5b506105a9611ba7565b005b6105c560048036038101906105c09190613c40565b611d24565b005b3480156105d2575f5ffd5b506105db6122d4565b6040516105e89190613784565b60405180910390f35b3480156105fc575f5ffd5b5061061760048036038101906106129190613c90565b6122db565b005b348015610624575f5ffd5b5061062d612a45565b60405161063a9190613c27565b60405180910390f35b34801561064e575f5ffd5b506106696004803603810190610664919061366a565b612a6d565b005b348015610676575f5ffd5b5061067f612b9d565b60405161068c9190613784565b60405180910390f35b3480156106a0575f5ffd5b506106a9612ba5565b6040516106b69190613cee565b60405180910390f35b3480156106ca575f5ffd5b506106e560048036038101906106e09190613885565b612bc9565b6040516106f29190613bca565b60405180910390f35b348015610706575f5ffd5b50610721600480360381019061071c9190613d07565b612d77565b60405161072e9190613784565b60405180910390f35b348015610742575f5ffd5b5061075d60048036038101906107589190613885565b612da2565b6040516107749b9a99989796959493929190613d72565b60405180910390f35b348015610788575f5ffd5b50610791612e3c565b60405161079e9190613784565b60405180910390f35b3480156107b2575f5ffd5b506107cd60048036038101906107c8919061366a565b612e42565b005b606060025f8373ffffffffffffffffffffffffffffffffffffffff1673ffffffffffffffffffffffffffffffffffffffff1681526020019081526020015f2080548060200260200160405190810160405280929190818152602001828054801561085657602002820191905f5260205f20905b815481526020019060010190808311610842575b50505050509050919050565b6301e1338081565b7f000000000000000000000000000000000000000000000000000000000000000081565b5f5f60025f8473ffffffffffffffffffffffffffffffffffffffff1673ffffffffffffffffffffffffffffffffffffffff1681526020019081526020015f2080548060200260200160405190810160405280929190818152602001828054801561091557602002820191905f5260205f20905b815481526020019060010190808311610901575b505050505090505f5f90505b81518110156109ab575f600281111561093d5761093c6139b8565b5b60015f84848151811061095357610952613e1b565b5b602002602001015181526020019081526020015f206009015f9054906101000a900460ff16600281111561098a576109896139b8565b5b0361099e57828061099a90613e75565b9350505b8080600101915050610921565b5050919050565b7f000000000000000000000000000000000000000000000000000000000000000081565b5f5f60015f8481526020019081526020015f20604051806101600160405290815f82015f9054906101000a900473ffffffffffffffffffffffffffffffffffffffff1673ffffffffffffffffffffffffffffffffffffffff1673ffffffffffffffffffffffffffffffffffffffff1681526020016001820154815260200160028201548152602001600382015f9054906101000a900460ff166001811115610a8157610a806139b8565b5b6001811115610a9357610a926139b8565b5b81526020016003820160019054906101000a900460ff166003811115610abc57610abb6139b8565b5b6003811115610ace57610acd6139b8565b5b81526020016004820154815260200160058201548152602001600682015481526020016007820154815260200160088201548152602001600982015f9054906101000a900460ff166002811115610b2857610b276139b8565b5b6002811115610b3a57610b396139b8565b5b8152505090505f6002811115610b5357610b526139b8565b5b8161014001516002811115610b6b57610b6a6139b8565b5b14610b79575f915050610c61565b5f7f000000000000000000000000000000000000000000000000000000000000000073ffffffffffffffffffffffffffffffffffffffff166305e1bd8c83602001518460a001518560c001516040518463ffffffff1660e01b8152600401610be393929190613ebc565b602060405180830381865afa158015610bfe573d5f5f3e3d5ffd5b505050506040513d601f19601f82011682018060405250810190610c229190613f05565b90505f818360200151610c359190613f30565b90508261012001518111610c49575f610c5b565b82610120015181610c5a9190613f63565b5b93505050505b919050565b7f000000000000000000000000000000000000000000000000000000000000000081565b610c92612ec6565b610c9a612ee8565b610ca48482612f29565b837f000000000000000000000000000000000000000000000000000000000000000073ffffffffffffffffffffffffffffffffffffffff16639b745aec6040518163ffffffff1660e01b8152600401602060405180830381865afa158015610d0e573d5f5f3e3d5ffd5b505050506040513d601f19601f82011682018060405250810190610d329190613f05565b1015610d6a576040517f6bb2792900000000000000000000000000000000000000000000000000000000815260040160405180910390fd5b5f7f000000000000000000000000000000000000000000000000000000000000000073ffffffffffffffffffffffffffffffffffffffff1663859b1f23336040518263ffffffff1660e01b8152600401610dc49190613c27565b602060405180830381865afa158015610ddf573d5f5f3e3d5ffd5b505050506040513d601f19601f82011682018060405250810190610e039190613f05565b90507f000000000000000000000000000000000000000000000000000000000000000073ffffffffffffffffffffffffffffffffffffffff16638fd00e8833876040518363ffffffff1660e01b8152600401610e60929190613f96565b602060405180830381865afa158015610e7b573d5f5f3e3d5ffd5b505050506040513d601f19601f82011682018060405250810190610e9f9190613fe7565b610ed5576040517f5697666100000000000000000000000000000000000000000000000000000000815260040160405180910390fd5b5f60648287610ee49190614012565b610eee9190614080565b905080851015610f2a576040517f3a23d82500000000000000000000000000000000000000000000000000000000815260040160405180910390fd5b60035f815480929190610f3c90613e75565b91905055505f60035490507f000000000000000000000000000000000000000000000000000000000000000073ffffffffffffffffffffffffffffffffffffffff166323b872dd3330896040518463ffffffff1660e01b8152600401610fa4939291906140b0565b6020604051808303815f875af1158015610fc0573d5f5f3e3d5ffd5b505050506040513d601f19601f82011682018060405250810190610fe49190613fe7565b507f000000000000000000000000000000000000000000000000000000000000000073ffffffffffffffffffffffffffffffffffffffff1663095ea7b37f0000000000000000000000000000000000000000000000000000000000000000886040518363ffffffff1660e01b8152600401611060929190613f96565b6020604051808303815f875af115801561107c573d5f5f3e3d5ffd5b505050506040513d601f19601f820116820180604052508101906110a09190613fe7565b507f000000000000000000000000000000000000000000000000000000000000000073ffffffffffffffffffffffffffffffffffffffff166395a4f2468233898b6040518563ffffffff1660e01b815260040161110094939291906140e5565b5f604051808303815f87803b158015611117575f5ffd5b505af1158015611129573d5f5f3e3d5ffd5b505050505f7f000000000000000000000000000000000000000000000000000000000000000073ffffffffffffffffffffffffffffffffffffffff166349186ab3876040518263ffffffff1660e01b81526004016111879190614128565b602060405180830381865afa1580156111a2573d5f5f3e3d5ffd5b505050506040513d601f19601f820116820180604052508101906111c69190613f05565b90506111d882898960018a868b612fd2565b7f000000000000000000000000000000000000000000000000000000000000000073ffffffffffffffffffffffffffffffffffffffff1663a610d0c0338a6040518363ffffffff1660e01b8152600401611233929190613f96565b5f604051808303815f87803b15801561124a575f5ffd5b505af115801561125c573d5f5f3e3d5ffd5b505050507f000000000000000000000000000000000000000000000000000000000000000073ffffffffffffffffffffffffffffffffffffffff16631922bb6f338a6040518363ffffffff1660e01b81526004016112bb929190613f96565b5f604051808303815f87803b1580156112d2575f5ffd5b505af11580156112e4573d5f5f3e3d5ffd5b50505050505050506112f4613276565b50505050565b60035481565b7f000000000000000000000000000000000000000000000000000000000000000081565b61132c613290565b611334613317565b565b5f5f60015f8481526020019081526020015f20604051806101600160405290815f82015f9054906101000a900473ffffffffffffffffffffffffffffffffffffffff1673ffffffffffffffffffffffffffffffffffffffff1673ffffffffffffffffffffffffffffffffffffffff1681526020016001820154815260200160028201548152602001600382015f9054906101000a900460ff1660018111156113e1576113e06139b8565b5b60018111156113f3576113f26139b8565b5b81526020016003820160019054906101000a900460ff16600381111561141c5761141b6139b8565b5b600381111561142e5761142d6139b8565b5b81526020016004820154815260200160058201548152602001600682015481526020016007820154815260200160088201548152602001600982015f9054906101000a900460ff166002811115611488576114876139b8565b5b600281111561149a576114996139b8565b5b8152505090505f7f000000000000000000000000000000000000000000000000000000000000000073ffffffffffffffffffffffffffffffffffffffff166305e1bd8c83602001518460a001518560c001516040518463ffffffff1660e01b815260040161150a93929190613ebc565b602060405180830381865afa158015611525573d5f5f3e3d5ffd5b505050506040513d601f19601f820116820180604052508101906115499190613f05565b905080826020015161155b9190613f30565b92505050919050565b61156c613571565b60015f8381526020019081526020015f20604051806101600160405290815f82015f9054906101000a900473ffffffffffffffffffffffffffffffffffffffff1673ffffffffffffffffffffffffffffffffffffffff1673ffffffffffffffffffffffffffffffffffffffff1681526020016001820154815260200160028201548152602001600382015f9054906101000a900460ff166001811115611615576116146139b8565b5b6001811115611627576116266139b8565b5b81526020016003820160019054906101000a900460ff1660038111156116505761164f6139b8565b5b6003811115611662576116616139b8565b5b81526020016004820154815260200160058201548152602001600682015481526020016007820154815260200160088201548152602001600982015f9054906101000a900460ff1660028111156116bc576116bb6139b8565b5b60028111156116ce576116cd6139b8565b5b815250509050919050565b6203f48081565b5f5f5f9054906101000a900460ff16905090565b6116fc612ec6565b5f60015f8381526020019081526020015f2090505f73ffffffffffffffffffffffffffffffffffffffff16815f015f9054906101000a900473ffffffffffffffffffffffffffffffffffffffff1673ffffffffffffffffffffffffffffffffffffffff1603611797576040517fcacaf78000000000000000000000000000000000000000000000000000000000815260040160405180910390fd5b5f60028111156117aa576117a96139b8565b5b816009015f9054906101000a900460ff1660028111156117cd576117cc6139b8565b5b14611804576040517f082f784600000000000000000000000000000000000000000000000000000000815260040160405180910390fd5b6203f48081600701546118179190613f30565b421015611850576040517f2539349b00000000000000000000000000000000000000000000000000000000815260040160405180910390fd5b5f7f000000000000000000000000000000000000000000000000000000000000000073ffffffffffffffffffffffffffffffffffffffff166305e1bd8c8360010154846004015485600501546040518463ffffffff1660e01b81526004016118ba93929190613ebc565b602060405180830381865afa1580156118d5573d5f5f3e3d5ffd5b505050506040513d601f19601f820116820180604052508101906118f99190613f05565b90505f81836001015461190c9190613f30565b90505f83600801548261191f9190613f63565b90506002846009015f6101000a81548160ff02191690836002811115611948576119476139b8565b5b02179055507f000000000000000000000000000000000000000000000000000000000000000073ffffffffffffffffffffffffffffffffffffffff16635fae8b3d86865f015f9054906101000a900473ffffffffffffffffffffffffffffffffffffffff166040518363ffffffff1660e01b81526004016119ca929190614141565b5f604051808303815f87803b1580156119e1575f5ffd5b505af11580156119f3573d5f5f3e3d5ffd5b505050507f000000000000000000000000000000000000000000000000000000000000000073ffffffffffffffffffffffffffffffffffffffff1663cd4544f2855f015f9054906101000a900473ffffffffffffffffffffffffffffffffffffffff16836040518363ffffffff1660e01b8152600401611a74929190613f96565b5f604051808303815f87803b158015611a8b575f5ffd5b505af1158015611a9d573d5f5f3e3d5ffd5b50505050835f015f9054906101000a900473ffffffffffffffffffffffffffffffffffffffff1673ffffffffffffffffffffffffffffffffffffffff16857f2d6de712d035bfecc1593860af7eae0831e978cab3cd96f778478b1fdc443bc383604051611b0a9190613784565b60405180910390a350505050611b1e613276565b50565b5f5f5f6103e860055460045f9054906101000a900473ffffffffffffffffffffffffffffffffffffffff16925092509250909192565b611b5f613290565b611b685f613377565b565b60055481565b60045f9054906101000a900473ffffffffffffffffffffffffffffffffffffffff1681565b611b9d613290565b611ba561343a565b565b611baf613290565b5f60055490505f8103611bee576040517f6806da6800000000000000000000000000000000000000000000000000000000815260040160405180910390fd5b5f6005819055507f000000000000000000000000000000000000000000000000000000000000000073ffffffffffffffffffffffffffffffffffffffff1663a9059cbb60045f9054906101000a900473ffffffffffffffffffffffffffffffffffffffff16836040518363ffffffff1660e01b8152600401611c71929190613f96565b6020604051808303815f875af1158015611c8d573d5f5f3e3d5ffd5b505050506040513d601f19601f82011682018060405250810190611cb19190613fe7565b5060045f9054906101000a900473ffffffffffffffffffffffffffffffffffffffff1673ffffffffffffffffffffffffffffffffffffffff167fa087657e3d85162090ffd700fbfdf5070d816f63aa5da00063f6ffd369c8a6db82604051611d199190613784565b60405180910390a250565b611d2c612ec6565b611d34612ee8565b611d3e8382612f29565b827f000000000000000000000000000000000000000000000000000000000000000073ffffffffffffffffffffffffffffffffffffffff16639b745aec6040518163ffffffff1660e01b8152600401602060405180830381865afa158015611da8573d5f5f3e3d5ffd5b505050506040513d601f19601f82011682018060405250810190611dcc9190613f05565b1015611e04576040517f6bb2792900000000000000000000000000000000000000000000000000000000815260040160405180910390fd5b5f7f000000000000000000000000000000000000000000000000000000000000000073ffffffffffffffffffffffffffffffffffffffff1663859b1f23336040518263ffffffff1660e01b8152600401611e5e9190613c27565b602060405180830381865afa158015611e79573d5f5f3e3d5ffd5b505050506040513d601f19601f82011682018060405250810190611e9d9190613f05565b90507f000000000000000000000000000000000000000000000000000000000000000073ffffffffffffffffffffffffffffffffffffffff16638fd00e8833866040518363ffffffff1660e01b8152600401611efa929190613f96565b602060405180830381865afa158015611f15573d5f5f3e3d5ffd5b505050506040513d601f19601f82011682018060405250810190611f399190613fe7565b611f6f576040517f5697666100000000000000000000000000000000000000000000000000000000815260040160405180910390fd5b5f60648286611f7e9190614012565b611f889190614080565b905060035f815480929190611f9c90613e75565b91905055505f60035490507f000000000000000000000000000000000000000000000000000000000000000073ffffffffffffffffffffffffffffffffffffffff1663750701743483338a6040518563ffffffff1660e01b815260040161200593929190614168565b5f604051808303818588803b15801561201c575f5ffd5b505af115801561202e573d5f5f3e3d5ffd5b50505050505f7f000000000000000000000000000000000000000000000000000000000000000073ffffffffffffffffffffffffffffffffffffffff166382fee08f836040518263ffffffff1660e01b815260040161208d9190613784565b602060405180830381865afa1580156120a8573d5f5f3e3d5ffd5b505050506040513d601f19601f820116820180604052508101906120cc9190613f05565b905082811015612108576040517f3a23d82500000000000000000000000000000000000000000000000000000000815260040160405180910390fd5b5f7f000000000000000000000000000000000000000000000000000000000000000073ffffffffffffffffffffffffffffffffffffffff166349186ab3886040518263ffffffff1660e01b81526004016121629190614128565b602060405180830381865afa15801561217d573d5f5f3e3d5ffd5b505050506040513d601f19601f820116820180604052508101906121a19190613f05565b90506121b28389345f8b868c612fd2565b7f000000000000000000000000000000000000000000000000000000000000000073ffffffffffffffffffffffffffffffffffffffff1663a610d0c0338a6040518363ffffffff1660e01b815260040161220d929190613f96565b5f604051808303815f87803b158015612224575f5ffd5b505af1158015612236573d5f5f3e3d5ffd5b505050507f000000000000000000000000000000000000000000000000000000000000000073ffffffffffffffffffffffffffffffffffffffff16631922bb6f338a6040518363ffffffff1660e01b8152600401612295929190613f96565b5f604051808303815f87803b1580156122ac575f5ffd5b505af11580156122be573d5f5f3e3d5ffd5b5050505050505050506122cf613276565b505050565b62093a8081565b6122e3612ec6565b6122eb612ee8565b5f60015f8481526020019081526020015f2090505f73ffffffffffffffffffffffffffffffffffffffff16815f015f9054906101000a900473ffffffffffffffffffffffffffffffffffffffff1673ffffffffffffffffffffffffffffffffffffffff1603612386576040517fcacaf78000000000000000000000000000000000000000000000000000000000815260040160405180910390fd5b3373ffffffffffffffffffffffffffffffffffffffff16815f015f9054906101000a900473ffffffffffffffffffffffffffffffffffffffff1673ffffffffffffffffffffffffffffffffffffffff161461240d576040517fb4c4612e00000000000000000000000000000000000000000000000000000000815260040160405180910390fd5b5f60028111156124205761241f6139b8565b5b816009015f9054906101000a900460ff166002811115612443576124426139b8565b5b1461247a576040517f082f784600000000000000000000000000000000000000000000000000000000815260040160405180910390fd5b5f82036124b3576040517f110fd50400000000000000000000000000000000000000000000000000000000815260040160405180910390fd5b5f7f000000000000000000000000000000000000000000000000000000000000000073ffffffffffffffffffffffffffffffffffffffff166305e1bd8c8360010154846004015485600501546040518463ffffffff1660e01b815260040161251d93929190613ebc565b602060405180830381865afa158015612538573d5f5f3e3d5ffd5b505050506040513d601f19601f8201168201806040525081019061255c9190613f05565b90505f81836001015461256f9190613f30565b90505f8360080154826125829190613f63565b90505f8186116125925785612594565b815b90507f000000000000000000000000000000000000000000000000000000000000000073ffffffffffffffffffffffffffffffffffffffff166323b872dd3330846040518463ffffffff1660e01b81526004016125f3939291906140b0565b6020604051808303815f875af115801561260f573d5f5f3e3d5ffd5b505050506040513d601f19601f820116820180604052508101906126339190613fe7565b5080856008015f8282546126479190613f30565b925050819055503373ffffffffffffffffffffffffffffffffffffffff16877f553c9087bff5b534e499a66dac3fa9db2962cd252ea01165239755836ae5345e83886008015460405161269b92919061419d565b60405180910390a35f8382866126b19190614012565b6126bb9190614080565b90505f6127106103e8836126cf9190614012565b6126d99190614080565b90505f81836126e89190613f63565b90508160055f8282546126fb9190613f30565b92505081905550897fea7a48472a5fee8e10e9d9e3986712ddce9d1d1d399b6977a580ee86675204de8360055460405161273692919061419d565b60405180910390a25f828561274b9190613f63565b90507f000000000000000000000000000000000000000000000000000000000000000073ffffffffffffffffffffffffffffffffffffffff1663095ea7b37f0000000000000000000000000000000000000000000000000000000000000000836040518363ffffffff1660e01b81526004016127c8929190613f96565b6020604051808303815f875af11580156127e4573d5f5f3e3d5ffd5b505050506040513d601f19601f820116820180604052508101906128089190613fe7565b507f000000000000000000000000000000000000000000000000000000000000000073ffffffffffffffffffffffffffffffffffffffff16638045850a82846040518363ffffffff1660e01b815260040161286492919061419d565b5f604051808303815f87803b15801561287b575f5ffd5b505af115801561288d573d5f5f3e3d5ffd5b5050505086896008015410612a30576001896009015f6101000a81548160ff021916908360028111156128c3576128c26139b8565b5b02179055507f000000000000000000000000000000000000000000000000000000000000000073ffffffffffffffffffffffffffffffffffffffff1663532c6b378c336040518363ffffffff1660e01b8152600401612923929190614141565b5f604051808303815f87803b15801561293a575f5ffd5b505af115801561294c573d5f5f3e3d5ffd5b505050507f000000000000000000000000000000000000000000000000000000000000000073ffffffffffffffffffffffffffffffffffffffff1663239c3df8338b600801546040518363ffffffff1660e01b81526004016129af929190613f96565b5f604051808303815f87803b1580156129c6575f5ffd5b505af11580156129d8573d5f5f3e3d5ffd5b505050503373ffffffffffffffffffffffffffffffffffffffff168b7f0745f755c290f59a19df0b3766854425bf6e4b86d623d39e5122b98585f3acc88b60080154604051612a279190613784565b60405180910390a35b505050505050505050612a41613276565b5050565b5f5f60019054906101000a900473ffffffffffffffffffffffffffffffffffffffff16905090565b612a75613290565b5f73ffffffffffffffffffffffffffffffffffffffff168173ffffffffffffffffffffffffffffffffffffffff1603612ada576040517fcfe2ea6300000000000000000000000000000000000000000000000000000000815260040160405180910390fd5b5f60045f9054906101000a900473ffffffffffffffffffffffffffffffffffffffff1690508160045f6101000a81548173ffffffffffffffffffffffffffffffffffffffff021916908373ffffffffffffffffffffffffffffffffffffffff1602179055508173ffffffffffffffffffffffffffffffffffffffff168173ffffffffffffffffffffffffffffffffffffffff167f0c5d18caa145415182f8ad3d2563da586609cec04ac8505274d87bc43f00b4a460405160405180910390a35050565b6305f5e10081565b7f000000000000000000000000000000000000000000000000000000000000000081565b5f5f60015f8481526020019081526020015f20604051806101600160405290815f82015f9054906101000a900473ffffffffffffffffffffffffffffffffffffffff1673ffffffffffffffffffffffffffffffffffffffff1673ffffffffffffffffffffffffffffffffffffffff1681526020016001820154815260200160028201548152602001600382015f9054906101000a900460ff166001811115612c7457612c736139b8565b5b6001811115612c8657612c856139b8565b5b81526020016003820160019054906101000a900460ff166003811115612caf57612cae6139b8565b5b6003811115612cc157612cc06139b8565b5b81526020016004820154815260200160058201548152602001600682015481526020016007820154815260200160088201548152602001600982015f9054906101000a900460ff166002811115612d1b57612d1a6139b8565b5b6002811115612d2d57612d2c6139b8565b5b8152505090505f6002811115612d4657612d456139b8565b5b8161014001516002811115612d5e57612d5d6139b8565b5b148015612d6f575080610100015142115b915050919050565b6002602052815f5260405f208181548110612d90575f80fd5b905f5260205f20015f91509150505481565b6001602052805f5260405f205f91509050805f015f9054906101000a900473ffffffffffffffffffffffffffffffffffffffff1690806001015490806002015490806003015f9054906101000a900460ff16908060030160019054906101000a900460ff1690806004015490806005015490806006015490806007015490806008015490806009015f9054906101000a900460ff1690508b565b6103e881565b612e4a613290565b5f73ffffffffffffffffffffffffffffffffffffffff168173ffffffffffffffffffffffffffffffffffffffff1603612eba575f6040517f1e4fbdf7000000000000000000000000000000000000000000000000000000008152600401612eb19190613c27565b60405180910390fd5b612ec381613377565b50565b612ece61349b565b6002612ee0612edb6134dc565b613505565b5f0181905550565b612ef06116e0565b15612f27576040517fd93c066500000000000000000000000000000000000000000000000000000000815260040160405180910390fd5b565b6305f5e100821015612f67576040517f5697666100000000000000000000000000000000000000000000000000000000815260040160405180910390fd5b6201518062093a80612f799190614080565b811080612f975750620151806301e13380612f949190614080565b81115b15612fce576040517f7616640100000000000000000000000000000000000000000000000000000000815260040160405180910390fd5b5050565b5f6201518082612fe29190614012565b42612fed9190613f30565b90506040518061016001604052803373ffffffffffffffffffffffffffffffffffffffff168152602001888152602001878152602001866001811115613036576130356139b8565b5b815260200185600381111561304e5761304d6139b8565b5b81526020018481526020018381526020014281526020018281526020015f81526020015f6002811115613084576130836139b8565b5b81525060015f8a81526020019081526020015f205f820151815f015f6101000a81548173ffffffffffffffffffffffffffffffffffffffff021916908373ffffffffffffffffffffffffffffffffffffffff16021790555060208201518160010155604082015181600201556060820151816003015f6101000a81548160ff0219169083600181111561311a576131196139b8565b5b021790555060808201518160030160016101000a81548160ff0219169083600381111561314a576131496139b8565b5b021790555060a0820151816004015560c0820151816005015560e0820151816006015561010082015181600701556101208201518160080155610140820151816009015f6101000a81548160ff021916908360028111156131ae576131ad6139b8565b5b021790555090505060025f3373ffffffffffffffffffffffffffffffffffffffff1673ffffffffffffffffffffffffffffffffffffffff1681526020019081526020015f2088908060018154018082558091505060019003905f5260205f20015f90919091909150553373ffffffffffffffffffffffffffffffffffffffff16887f8f8bd2e073dcbcb62a032944d40482f2ef3135a4c4c7c8665f0bf3ecfd581f848989888760405161326494939291906141c4565b60405180910390a35050505050505050565b60016132886132836134dc565b613505565b5f0181905550565b61329861350e565b73ffffffffffffffffffffffffffffffffffffffff166132b6612a45565b73ffffffffffffffffffffffffffffffffffffffff1614613315576132d961350e565b6040517f118cdaa700000000000000000000000000000000000000000000000000000000815260040161330c9190613c27565b60405180910390fd5b565b61331f613515565b5f5f5f6101000a81548160ff0219169083151502179055507f5db9ee0a495bf2e6ff9c91a7834c1ba4fdd244a5e8aa4e537bd38aeae4b073aa61336061350e565b60405161336d9190613c27565b60405180910390a1565b5f5f60019054906101000a900473ffffffffffffffffffffffffffffffffffffffff169050815f60016101000a81548173ffffffffffffffffffffffffffffffffffffffff021916908373ffffffffffffffffffffffffffffffffffffffff1602179055508173ffffffffffffffffffffffffffffffffffffffff168173ffffffffffffffffffffffffffffffffffffffff167f8be0079c531659141344cd1fd0a4f28419497f9722a3daafe3b4186f6b6457e060405160405180910390a35050565b613442612ee8565b60015f5f6101000a81548160ff0219169083151502179055507f62e78cea01bee320cd4e420270b5ea74000d11b0c9f74754ebdbfc544b05a25861348461350e565b6040516134919190613c27565b60405180910390a1565b6134a3613555565b156134da576040517f3ee5aeb500000000000000000000000000000000000000000000000000000000815260040160405180910390fd5b565b5f7f9b779b17422d0df92223018b32b4d1fa46e071723d6817e2486d003becc55f005f1b905090565b5f819050919050565b5f33905090565b61351d6116e0565b613553576040517f8dfc202b00000000000000000000000000000000000000000000000000000000815260040160405180910390fd5b565b5f60026135686135636134dc565b613505565b5f015414905090565b6040518061016001604052805f73ffffffffffffffffffffffffffffffffffffffff1681526020015f81526020015f81526020015f60018111156135b8576135b76139b8565b5b81526020015f60038111156135d0576135cf6139b8565b5b81526020015f81526020015f81526020015f81526020015f81526020015f81526020015f6002811115613606576136056139b8565b5b81525090565b5f5ffd5b5f73ffffffffffffffffffffffffffffffffffffffff82169050919050565b5f61363982613610565b9050919050565b6136498161362f565b8114613653575f5ffd5b50565b5f8135905061366481613640565b92915050565b5f6020828403121561367f5761367e61360c565b5b5f61368c84828501613656565b91505092915050565b5f81519050919050565b5f82825260208201905092915050565b5f819050602082019050919050565b5f819050919050565b6136d0816136be565b82525050565b5f6136e183836136c7565b60208301905092915050565b5f602082019050919050565b5f61370382613695565b61370d818561369f565b9350613718836136af565b805f5b8381101561374857815161372f88826136d6565b975061373a836136ed565b92505060018101905061371b565b5085935050505092915050565b5f6020820190508181035f83015261376d81846136f9565b905092915050565b61377e816136be565b82525050565b5f6020820190506137975f830184613775565b92915050565b5f819050919050565b5f6137c06137bb6137b684613610565b61379d565b613610565b9050919050565b5f6137d1826137a6565b9050919050565b5f6137e2826137c7565b9050919050565b6137f2816137d8565b82525050565b5f60208201905061380b5f8301846137e9565b92915050565b5f61381b826137a6565b9050919050565b5f61382c82613811565b9050919050565b61383c81613822565b82525050565b5f6020820190506138555f830184613833565b92915050565b613864816136be565b811461386e575f5ffd5b50565b5f8135905061387f8161385b565b92915050565b5f6020828403121561389a5761389961360c565b5b5f6138a784828501613871565b91505092915050565b5f6138ba826137c7565b9050919050565b6138ca816138b0565b82525050565b5f6020820190506138e35f8301846138c1565b92915050565b600481106138f5575f5ffd5b50565b5f81359050613906816138e9565b92915050565b5f5f5f5f608085870312156139245761392361360c565b5b5f61393187828801613871565b945050602061394287828801613871565b9350506040613953878288016138f8565b925050606061396487828801613871565b91505092959194509250565b5f61397a826137c7565b9050919050565b61398a81613970565b82525050565b5f6020820190506139a35f830184613981565b92915050565b6139b28161362f565b82525050565b7f4e487b71000000000000000000000000000000000000000000000000000000005f52602160045260245ffd5b600281106139f6576139f56139b8565b5b50565b5f819050613a06826139e5565b919050565b5f613a15826139f9565b9050919050565b613a2581613a0b565b82525050565b60048110613a3c57613a3b6139b8565b5b50565b5f819050613a4c82613a2b565b919050565b5f613a5b82613a3f565b9050919050565b613a6b81613a51565b82525050565b60038110613a8257613a816139b8565b5b50565b5f819050613a9282613a71565b919050565b5f613aa182613a85565b9050919050565b613ab181613a97565b82525050565b61016082015f820151613acc5f8501826139a9565b506020820151613adf60208501826136c7565b506040820151613af260408501826136c7565b506060820151613b056060850182613a1c565b506080820151613b186080850182613a62565b5060a0820151613b2b60a08501826136c7565b5060c0820151613b3e60c08501826136c7565b5060e0820151613b5160e08501826136c7565b50610100820151613b666101008501826136c7565b50610120820151613b7b6101208501826136c7565b50610140820151613b90610140850182613aa8565b50505050565b5f61016082019050613baa5f830184613ab7565b92915050565b5f8115159050919050565b613bc481613bb0565b82525050565b5f602082019050613bdd5f830184613bbb565b92915050565b613bec8161362f565b82525050565b5f606082019050613c055f830186613775565b613c126020830185613775565b613c1f6040830184613be3565b949350505050565b5f602082019050613c3a5f830184613be3565b92915050565b5f5f5f60608486031215613c5757613c5661360c565b5b5f613c6486828701613871565b9350506020613c75868287016138f8565b9250506040613c8686828701613871565b9150509250925092565b5f5f60408385031215613ca657613ca561360c565b5b5f613cb385828601613871565b9250506020613cc485828601613871565b9150509250929050565b5f613cd8826137c7565b9050919050565b613ce881613cce565b82525050565b5f602082019050613d015f830184613cdf565b92915050565b5f5f60408385031215613d1d57613d1c61360c565b5b5f613d2a85828601613656565b9250506020613d3b85828601613871565b9150509250929050565b613d4e81613a0b565b82525050565b613d5d81613a51565b82525050565b613d6c81613a97565b82525050565b5f61016082019050613d865f83018e613be3565b613d93602083018d613775565b613da0604083018c613775565b613dad606083018b613d45565b613dba608083018a613d54565b613dc760a0830189613775565b613dd460c0830188613775565b613de160e0830187613775565b613def610100830186613775565b613dfd610120830185613775565b613e0b610140830184613d63565b9c9b505050505050505050505050565b7f4e487b71000000000000000000000000000000000000000000000000000000005f52603260045260245ffd5b7f4e487b71000000000000000000000000000000000000000000000000000000005f52601160045260245ffd5b5f613e7f826136be565b91507fffffffffffffffffffffffffffffffffffffffffffffffffffffffffffffffff8203613eb157613eb0613e48565b5b600182019050919050565b5f606082019050613ecf5f830186613775565b613edc6020830185613775565b613ee96040830184613775565b949350505050565b5f81519050613eff8161385b565b92915050565b5f60208284031215613f1a57613f1961360c565b5b5f613f2784828501613ef1565b91505092915050565b5f613f3a826136be565b9150613f45836136be565b9250828201905080821115613f5d57613f5c613e48565b5b92915050565b5f613f6d826136be565b9150613f78836136be565b9250828203905081811115613f9057613f8f613e48565b5b92915050565b5f604082019050613fa95f830185613be3565b613fb66020830184613775565b9392505050565b613fc681613bb0565b8114613fd0575f5ffd5b50565b5f81519050613fe181613fbd565b92915050565b5f60208284031215613ffc57613ffb61360c565b5b5f61400984828501613fd3565b91505092915050565b5f61401c826136be565b9150614027836136be565b9250828202614035816136be565b9150828204841483151761404c5761404b613e48565b5b5092915050565b7f4e487b71000000000000000000000000000000000000000000000000000000005f52601260045260245ffd5b5f61408a826136be565b9150614095836136be565b9250826140a5576140a4614053565b5b828204905092915050565b5f6060820190506140c35f830186613be3565b6140d06020830185613be3565b6140dd6040830184613775565b949350505050565b5f6080820190506140f85f830187613775565b6141056020830186613be3565b6141126040830185613775565b61411f6060830184613775565b95945050505050565b5f60208201905061413b5f830184613d54565b92915050565b5f6040820190506141545f830185613775565b6141616020830184613be3565b9392505050565b5f60608201905061417b5f830186613775565b6141886020830185613be3565b6141956040830184613775565b949350505050565b5f6040820190506141b05f830185613775565b6141bd6020830184613775565b9392505050565b5f6080820190506141d75f830187613775565b6141e46020830186613775565b6141f16040830185613d54565b6141fe6060830184613775565b9594505050505056fea26469706673582212203d9759d765cd0d1199168d1d5629f600c607e13cae8f6e13a2e7e6a973f8c89a64736f6c634300081e0033","linkReferences":{}},"methodIdentifiers":{"LIQUIDATION_GRACE_PERIOD()":"55acde0c","MAX_LOAN_DURATION()":"0d0b2ca6","MIN_LOAN_AMOUNT()":"96fa212f","MIN_LOAN_DURATION()":"89d99a05","PROTOCOL_FEE_PERCENTAGE()":"e4d7d6dc","collateralManager()":"23be345c","createLoanWithEth(uint256,uint8,uint256)":"88db21ae","createLoanWithUsdt(uint256,uint256,uint8,uint256)":"3107cf70","creditScore()":"39da3152","defaultLoan(uint256)":"67bf61c4","getActiveLoanCount(address)":"2391411a","getLoan(uint256)":"504006ca","getOutstandingAmount(uint256)":"28e37043","getProtocolFeeInfo()":"695639b7","getTotalDue(uint256)":"4f4cf428","getUserLoans(address)":"02bf321f","interestCalculator()":"0f7c4e16","isOverdue(uint256)":"d22a0d0f","lendingPool()":"a59a9973","loanCounter()":"34d9289e","loans(uint256)":"e1ec3c68","owner()":"8da5cb5b","pause()":"8456cb59","paused()":"5c975abb","protocolTreasury()":"803db96d","renounceOwnership()":"715018a6","repayLoan(uint256,uint256)":"8a700b53","totalProtocolFeesCollected()":"7394e627","transferOwnership(address)":"f2fde38b","unpause()":"3f4ba83a","updateProtocolTreasury(address)":"926f86ce","usdt()":"2f48ab7d","userLoans(address,uint256)":"d8bad5bd","withdrawProtocolFees()":"8795cccb"},"id":32}