{"abi":[{"type":"constructor","inputs":[],"stateMutability":"nonpayable"},{"type":"function","name":"allowance","inputs":[{"name":"owner","type":"address","internalType":"address"},{"name":"spender","type":"address","internalType":"address"}],"outputs":[{"name":"","type":"uint256","internalType":"uint256"}],"stateMutability":"view"},{"type":"function","name":"approve","inputs":[{"name":"spender","type":"address","internalType":"address"},{"name":"value","type":"uint256","internalType":"uint256"}],"outputs":[{"name":"","type":"bool","internalType":"bool"}],"stateMutability":"nonpayable"},{"type":"function","name":"balanceOf","inputs":[{"name":"account","type":"address","internalType":"address"}],"outputs":[{"name":"","type":"uint256","internalType":"uint256"}],"stateMutability":"view"},{"type":"function","name":"burn","inputs":[{"name":"amount","type":"uint256","internalType":"uint256"}],"outputs":[],"stateMutability":"nonpayable"},{"type":"function","name":"decimals","inputs":[],"outputs":[{"name":"","type":"uint8","internalType":"uint8"}],"stateMutability":"pure"},{"type":"function","name":"mint","inputs":[{"name":"to","type":"address","internalType":"address"},{"name":"amount","type":"uint256","internalType":"uint256"}],"outputs":[],"stateMutability":"nonpayable"},{"type":"function","name":"name","inputs":[],"outputs":[{"name":"","type":"string","internalType":"string"}],"stateMutability":"view"},{"type":"function","name":"owner","inputs":[],"outputs":[{"name":"","type":"address","internalType":"address"}],"stateMutability":"view"},{"type":"function","name":"renounceOwnership","inputs":[],"outputs":[],"stateMutability":"nonpayable"},{"type":"function","name":"symbol","inputs":[],"outputs":[{"name":"","type":"string","internalType":"string"}],"stateMutability":"view"},{"type":"function","name":"totalSupply","inputs":[],"outputs":[{"name":"","type":"uint256","internalType":"uint256"}],"stateMutability":"view"},{"type":"function","name":"transfer","inputs":[{"name":"to","type":"address","internalType":"address"},{"name":"value","type":"uint256","internalType":"uint256"}],"outputs":[{"name":"","type":"bool","internalType":"bool"}],"stateMutability":"nonpayable"},{"type":"function","name":"transferFrom","inputs":[{"name":"from","type":"address","internalType":"address"},{"name":"to","type":"address","internalType":"address"},{"name":"value","type":"uint256","internalType":"uint256"}],"outputs":[{"name":"","type":"bool","internalType":"bool"}],"stateMutability":"nonpayable"},{"type":"function","name":"transferOwnership","inputs":[{"name":"newOwner","type":"address","internalType":"address"}],"outputs":[],"stateMutability":"nonpayable"},{"type":"event","name":"Approval","inputs":[{"name":"owner","type":"address","indexed":true,"internalType":"address"},{"name":"spender","type":"address","indexed":true,"internalType":"address"},{"name":"value","type":"uint256","indexed":false,"internalType":"uint256"}],"anonymous":false},{"type":"event","name":"OwnershipTransferred","inputs":[{"name":"previousOwner","type":"address","indexed":true,"internalType":"address"},{"name":"newOwner","type":"address","indexed":true,"internalType":"address"}],"anonymous":false},{"type":"event","name":"Transfer","inputs":[{"name":"from","type":"address","indexed":true,"internalType":"address"},{"name":"to","type":"address","indexed":true,"internalType":"address"},{"name":"value","type":"uint256","indexed":false,"internalType":"uint256"}],"anonymous":false},{"type":"error","name":"ERC20InsufficientAllowance","inputs":[{"name":"spender","type":"address","internalType":"address"},{"name":"allowance","type":"uint256","internalType":"uint256"},{"name":"needed","type":"uint256","internalType":"uint256"}]},{"type":"error","name":"ERC20InsufficientBalance","inputs":[{"name":"sender","type":"address","internalType":"address"},{"name":"balance","type":"uint256","internalType":"uint256"},{"name":"needed","type":"uint256","internalType":"uint256"}]},{"type":"error","name":"ERC20InvalidApprover","inputs":[{"name":"approver","type":"address","internalType":"address"}]},{"type":"error","name":"ERC20InvalidReceiver","inputs":[{"name":"receiver","type":"address","internalType":"address"}]},{"type":"error","name":"ERC20InvalidSender","inputs":[{"name":"sender","type":"address","internalType":"address"}]},{"type":"error","name":"ERC20InvalidSpender","inputs":[{"name":"spender","type":"address","internalType":"address"}]},{"type":"error","name":"OwnableInvalidOwner","inputs":[{"name":"owner","type":"address","internalType":"address"}]},{"type":"error","name":"OwnableUnauthorizedAccount","inputs":[{"name":"account","type":"address","internalType":"address"}]}],"bytecode":{"object":"0x608060405234801561000f575f5ffd5b50336040518060400160405280600981526020017f4d6f636b205553445400000000000000000000000000000000000000000000008152506040518060400160405280600481526020017f5553445400000000000000000000000000000000000000000000000000000000815250816003908161008c91906106ed565b50806004908161009c91906106ed565b5050505f73ffffffffffffffffffffffffffffffffffffffff168173ffffffffffffffffffffffffffffffffffffffff160361010f575f6040517f1e4fbdf700000000000000000000000000000000000000000000000000000000815260040161010691906107fb565b60405180910390fd5b61011e8161014f60201b60201c565b5061014a336006600a610131919061097c565b620f424061013f91906109c6565b61021260201b60201c565b610a97565b5f60055f9054906101000a900473ffffffffffffffffffffffffffffffffffffffff1690508160055f6101000a81548173ffffffffffffffffffffffffffffffffffffffff021916908373ffffffffffffffffffffffffffffffffffffffff1602179055508173ffffffffffffffffffffffffffffffffffffffff168173ffffffffffffffffffffffffffffffffffffffff167f8be0079c531659141344cd1fd0a4f28419497f9722a3daafe3b4186f6b6457e060405160405180910390a35050565b5f73ffffffffffffffffffffffffffffffffffffffff168273ffffffffffffffffffffffffffffffffffffffff1603610282575f6040517fec442f0500000000000000000000000000000000000000000000000000000000815260040161027991906107fb565b60405180910390fd5b6102935f838361029760201b60201c565b5050565b5f73ffffffffffffffffffffffffffffffffffffffff168373ffffffffffffffffffffffffffffffffffffffff16036102e7578060025f8282546102db9190610a07565b925050819055506103b5565b5f5f5f8573ffffffffffffffffffffffffffffffffffffffff1673ffffffffffffffffffffffffffffffffffffffff1681526020019081526020015f2054905081811015610370578381836040517fe450d38c00000000000000000000000000000000000000000000000000000000815260040161036793929190610a49565b60405180910390fd5b8181035f5f8673ffffffffffffffffffffffffffffffffffffffff1673ffffffffffffffffffffffffffffffffffffffff1681526020019081526020015f2081905550505b5f73ffffffffffffffffffffffffffffffffffffffff168273ffffffffffffffffffffffffffffffffffffffff16036103fc578060025f8282540392505081905550610446565b805f5f8473ffffffffffffffffffffffffffffffffffffffff1673ffffffffffffffffffffffffffffffffffffffff1681526020019081526020015f205f82825401925050819055505b8173ffffffffffffffffffffffffffffffffffffffff168373ffffffffffffffffffffffffffffffffffffffff167fddf252ad1be2c89b69c2b068fc378daa952ba7f163c4a11628f55a4df523b3ef836040516104a39190610a7e565b60405180910390a3505050565b5f81519050919050565b7f4e487b71000000000000000000000000000000000000000000000000000000005f52604160045260245ffd5b7f4e487b71000000000000000000000000000000000000000000000000000000005f52602260045260245ffd5b5f600282049050600182168061052b57607f821691505b60208210810361053e5761053d6104e7565b5b50919050565b5f819050815f5260205f209050919050565b5f6020601f8301049050919050565b5f82821b905092915050565b5f600883026105a07fffffffffffffffffffffffffffffffffffffffffffffffffffffffffffffffff82610565565b6105aa8683610565565b95508019841693508086168417925050509392505050565b5f819050919050565b5f819050919050565b5f6105ee6105e96105e4846105c2565b6105cb565b6105c2565b9050919050565b5f819050919050565b610607836105d4565b61061b610613826105f5565b848454610571565b825550505050565b5f5f905090565b610632610623565b61063d8184846105fe565b505050565b5b81811015610660576106555f8261062a565b600181019050610643565b5050565b601f8211156106a55761067681610544565b61067f84610556565b8101602085101561068e578190505b6106a261069a85610556565b830182610642565b50505b505050565b5f82821c905092915050565b5f6106c55f19846008026106aa565b1980831691505092915050565b5f6106dd83836106b6565b9150826002028217905092915050565b6106f6826104b0565b67ffffffffffffffff81111561070f5761070e6104ba565b5b6107198254610514565b610724828285610664565b5f60209050601f831160018114610755575f8415610743578287015190505b61074d85826106d2565b8655506107b4565b601f19841661076386610544565b5f5b8281101561078a57848901518255600182019150602085019450602081019050610765565b868310156107a757848901516107a3601f8916826106b6565b8355505b6001600288020188555050505b505050505050565b5f73ffffffffffffffffffffffffffffffffffffffff82169050919050565b5f6107e5826107bc565b9050919050565b6107f5816107db565b82525050565b5f60208201905061080e5f8301846107ec565b92915050565b7f4e487b71000000000000000000000000000000000000000000000000000000005f52601160045260245ffd5b5f8160011c9050919050565b5f5f8291508390505b60018511156108965780860481111561087257610871610814565b5b60018516156108815780820291505b808102905061088f85610841565b9450610856565b94509492505050565b5f826108ae5760019050610969565b816108bb575f9050610969565b81600181146108d157600281146108db5761090a565b6001915050610969565b60ff8411156108ed576108ec610814565b5b8360020a91508482111561090457610903610814565b5b50610969565b5060208310610133831016604e8410600b841016171561093f5782820a90508381111561093a57610939610814565b5b610969565b61094c848484600161084d565b9250905081840481111561096357610962610814565b5b81810290505b9392505050565b5f60ff82169050919050565b5f610986826105c2565b915061099183610970565b92506109be7fffffffffffffffffffffffffffffffffffffffffffffffffffffffffffffffff848461089f565b905092915050565b5f6109d0826105c2565b91506109db836105c2565b92508282026109e9816105c2565b91508282048414831517610a00576109ff610814565b5b5092915050565b5f610a11826105c2565b9150610a1c836105c2565b9250828201905080821115610a3457610a33610814565b5b92915050565b610a43816105c2565b82525050565b5f606082019050610a5c5f8301866107ec565b610a696020830185610a3a565b610a766040830184610a3a565b949350505050565b5f602082019050610a915f830184610a3a565b92915050565b61143480610aa45f395ff3fe608060405234801561000f575f5ffd5b50600436106100e8575f3560e01c806370a082311161008a57806395d89b411161006457806395d89b4114610236578063a9059cbb14610254578063dd62ed3e14610284578063f2fde38b146102b4576100e8565b806370a08231146101de578063715018a61461020e5780638da5cb5b14610218576100e8565b806323b872dd116100c657806323b872dd14610158578063313ce5671461018857806340c10f19146101a657806342966c68146101c2576100e8565b806306fdde03146100ec578063095ea7b31461010a57806318160ddd1461013a575b5f5ffd5b6100f46102d0565b6040516101019190610f4a565b60405180910390f35b610124600480360381019061011f9190610ffb565b610360565b6040516101319190611053565b60405180910390f35b610142610382565b60405161014f919061107b565b60405180910390f35b610172600480360381019061016d9190611094565b61038b565b60405161017f9190611053565b60405180910390f35b6101906103b9565b60405161019d91906110ff565b60405180910390f35b6101c060048036038101906101bb9190610ffb565b6103c1565b005b6101dc60048036038101906101d79190611118565b610487565b005b6101f860048036038101906101f39190611143565b6104d6565b604051610205919061107b565b60405180910390f35b61021661051b565b005b61022061052e565b60405161022d919061117d565b60405180910390f35b61023e610556565b60405161024b9190610f4a565b60405180910390f35b61026e60048036038101906102699190610ffb565b6105e6565b60405161027b9190611053565b60405180910390f35b61029e60048036038101906102999190611196565b610608565b6040516102ab919061107b565b60405180910390f35b6102ce60048036038101906102c99190611143565b61068a565b005b6060600380546102df90611201565b80601f016020809104026020016040519081016040528092919081815260200182805461030b90611201565b80156103565780601f1061032d57610100808354040283529160200191610356565b820191905f5260205f20905b81548152906001019060200180831161033957829003601f168201915b5050505050905090565b5f5f61036a61070e565b9050610377818585610715565b600191505092915050565b5f600254905090565b5f5f61039561070e565b90506103a2858285610727565b6103ad8585856107ba565b60019150509392505050565b5f6006905090565b6103c96108aa565b5f73ffffffffffffffffffffffffffffffffffffffff168273ffffffffffffffffffffffffffffffffffffffff1603610437576040517f08c379a000000000000000000000000000000000000000000000000000000000815260040161042e9061127b565b60405180910390fd5b5f8111610479576040517f08c379a0000000000000000000000000000000000000000000000000000000008152600401610470906112e3565b60405180910390fd5b6104838282610931565b5050565b5f81116104c9576040517f08c379a00000000000000000000000000000000000000000000000000000000081526004016104c09061134b565b60405180910390fd5b6104d333826109b0565b50565b5f5f5f8373ffffffffffffffffffffffffffffffffffffffff1673ffffffffffffffffffffffffffffffffffffffff1681526020019081526020015f20549050919050565b6105236108aa565b61052c5f610a2f565b565b5f60055f9054906101000a900473ffffffffffffffffffffffffffffffffffffffff16905090565b60606004805461056590611201565b80601f016020809104026020016040519081016040528092919081815260200182805461059190611201565b80156105dc5780601f106105b3576101008083540402835291602001916105dc565b820191905f5260205f20905b8154815290600101906020018083116105bf57829003601f168201915b5050505050905090565b5f5f6105f061070e565b90506105fd8185856107ba565b600191505092915050565b5f60015f8473ffffffffffffffffffffffffffffffffffffffff1673ffffffffffffffffffffffffffffffffffffffff1681526020019081526020015f205f8373ffffffffffffffffffffffffffffffffffffffff1673ffffffffffffffffffffffffffffffffffffffff1681526020019081526020015f2054905092915050565b6106926108aa565b5f73ffffffffffffffffffffffffffffffffffffffff168173ffffffffffffffffffffffffffffffffffffffff1603610702575f6040517f1e4fbdf70000000000000000000000000000000000000000000000000000000081526004016106f9919061117d565b60405180910390fd5b61070b81610a2f565b50565b5f33905090565b6107228383836001610af2565b505050565b5f6107328484610608565b90507fffffffffffffffffffffffffffffffffffffffffffffffffffffffffffffffff8110156107b457818110156107a5578281836040517ffb8f41b200000000000000000000000000000000000000000000000000000000815260040161079c93929190611369565b60405180910390fd5b6107b384848484035f610af2565b5b50505050565b5f73ffffffffffffffffffffffffffffffffffffffff168373ffffffffffffffffffffffffffffffffffffffff160361082a575f6040517f96c6fd1e000000000000000000000000000000000000000000000000000000008152600401610821919061117d565b60405180910390fd5b5f73ffffffffffffffffffffffffffffffffffffffff168273ffffffffffffffffffffffffffffffffffffffff160361089a575f6040517fec442f05000000000000000000000000000000000000000000000000000000008152600401610891919061117d565b60405180910390fd5b6108a5838383610cc1565b505050565b6108b261070e565b73ffffffffffffffffffffffffffffffffffffffff166108d061052e565b73ffffffffffffffffffffffffffffffffffffffff161461092f576108f361070e565b6040517f118cdaa7000000000000000000000000000000000000000000000000000000008152600401610926919061117d565b60405180910390fd5b565b5f73ffffffffffffffffffffffffffffffffffffffff168273ffffffffffffffffffffffffffffffffffffffff16036109a1575f6040517fec442f05000000000000000000000000000000000000000000000000000000008152600401610998919061117d565b60405180910390fd5b6109ac5f8383610cc1565b5050565b5f73ffffffffffffffffffffffffffffffffffffffff168273ffffffffffffffffffffffffffffffffffffffff1603610a20575f6040517f96c6fd1e000000000000000000000000000000000000000000000000000000008152600401610a17919061117d565b60405180910390fd5b610a2b825f83610cc1565b5050565b5f60055f9054906101000a900473ffffffffffffffffffffffffffffffffffffffff1690508160055f6101000a81548173ffffffffffffffffffffffffffffffffffffffff021916908373ffffffffffffffffffffffffffffffffffffffff1602179055508173ffffffffffffffffffffffffffffffffffffffff168173ffffffffffffffffffffffffffffffffffffffff167f8be0079c531659141344cd1fd0a4f28419497f9722a3daafe3b4186f6b6457e060405160405180910390a35050565b5f73ffffffffffffffffffffffffffffffffffffffff168473ffffffffffffffffffffffffffffffffffffffff1603610b62575f6040517fe602df05000000000000000000000000000000000000000000000000000000008152600401610b59919061117d565b60405180910390fd5b5f73ffffffffffffffffffffffffffffffffffffffff168373ffffffffffffffffffffffffffffffffffffffff1603610bd2575f6040517f94280d62000000000000000000000000000000000000000000000000000000008152600401610bc9919061117d565b60405180910390fd5b8160015f8673ffffffffffffffffffffffffffffffffffffffff1673ffffffffffffffffffffffffffffffffffffffff1681526020019081526020015f205f8573ffffffffffffffffffffffffffffffffffffffff1673ffffffffffffffffffffffffffffffffffffffff1681526020019081526020015f20819055508015610cbb578273ffffffffffffffffffffffffffffffffffffffff168473ffffffffffffffffffffffffffffffffffffffff167f8c5be1e5ebec7d5bd14f71427d1e84f3dd0314c0f7b2291e5b200ac8c7c3b92584604051610cb2919061107b565b60405180910390a35b50505050565b5f73ffffffffffffffffffffffffffffffffffffffff168373ffffffffffffffffffffffffffffffffffffffff1603610d11578060025f828254610d0591906113cb565b92505081905550610ddf565b5f5f5f8573ffffffffffffffffffffffffffffffffffffffff1673ffffffffffffffffffffffffffffffffffffffff1681526020019081526020015f2054905081811015610d9a578381836040517fe450d38c000000000000000000000000000000000000000000000000000000008152600401610d9193929190611369565b60405180910390fd5b8181035f5f8673ffffffffffffffffffffffffffffffffffffffff1673ffffffffffffffffffffffffffffffffffffffff1681526020019081526020015f2081905550505b5f73ffffffffffffffffffffffffffffffffffffffff168273ffffffffffffffffffffffffffffffffffffffff1603610e26578060025f8282540392505081905550610e70565b805f5f8473ffffffffffffffffffffffffffffffffffffffff1673ffffffffffffffffffffffffffffffffffffffff1681526020019081526020015f205f82825401925050819055505b8173ffffffffffffffffffffffffffffffffffffffff168373ffffffffffffffffffffffffffffffffffffffff167fddf252ad1be2c89b69c2b068fc378daa952ba7f163c4a11628f55a4df523b3ef83604051610ecd919061107b565b60405180910390a3505050565b5f81519050919050565b5f82825260208201905092915050565b8281835e5f83830152505050565b5f601f19601f8301169050919050565b5f610f1c82610eda565b610f268185610ee4565b9350610f36818560208601610ef4565b610f3f81610f02565b840191505092915050565b5f6020820190508181035f830152610f628184610f12565b905092915050565b5f5ffd5b5f73ffffffffffffffffffffffffffffffffffffffff82169050919050565b5f610f9782610f6e565b9050919050565b610fa781610f8d565b8114610fb1575f5ffd5b50565b5f81359050610fc281610f9e565b92915050565b5f819050919050565b610fda81610fc8565b8114610fe4575f5ffd5b50565b5f81359050610ff581610fd1565b92915050565b5f5f6040838503121561101157611010610f6a565b5b5f61101e85828601610fb4565b925050602061102f85828601610fe7565b9150509250929050565b5f8115159050919050565b61104d81611039565b82525050565b5f6020820190506110665f830184611044565b92915050565b61107581610fc8565b82525050565b5f60208201905061108e5f83018461106c565b92915050565b5f5f5f606084860312156110ab576110aa610f6a565b5b5f6110b886828701610fb4565b93505060206110c986828701610fb4565b92505060406110da86828701610fe7565b9150509250925092565b5f60ff82169050919050565b6110f9816110e4565b82525050565b5f6020820190506111125f8301846110f0565b92915050565b5f6020828403121561112d5761112c610f6a565b5b5f61113a84828501610fe7565b91505092915050565b5f6020828403121561115857611157610f6a565b5b5f61116584828501610fb4565b91505092915050565b61117781610f8d565b82525050565b5f6020820190506111905f83018461116e565b92915050565b5f5f604083850312156111ac576111ab610f6a565b5b5f6111b985828601610fb4565b92505060206111ca85828601610fb4565b9150509250929050565b7f4e487b71000000000000000000000000000000000000000000000000000000005f52602260045260245ffd5b5f600282049050600182168061121857607f821691505b60208210810361122b5761122a6111d4565b5b50919050565b7f4d6f636b555344543a206d696e7420746f207a65726f206164647265737300005f82015250565b5f611265601e83610ee4565b915061127082611231565b602082019050919050565b5f6020820190508181035f83015261129281611259565b9050919050565b7f4d6f636b555344543a206d696e7420616d6f756e74207a65726f0000000000005f82015250565b5f6112cd601a83610ee4565b91506112d882611299565b602082019050919050565b5f6020820190508181035f8301526112fa816112c1565b9050919050565b7f4d6f636b555344543a206275726e20616d6f756e74207a65726f0000000000005f82015250565b5f611335601a83610ee4565b915061134082611301565b602082019050919050565b5f6020820190508181035f83015261136281611329565b9050919050565b5f60608201905061137c5f83018661116e565b611389602083018561106c565b611396604083018461106c565b949350505050565b7f4e487b71000000000000000000000000000000000000000000000000000000005f52601160045260245ffd5b5f6113d582610fc8565b91506113e083610fc8565b92508282019050808211156113f8576113f761139e565b5b9291505056fea26469706673582212208f8c8b7aebd7ff75864d3ec0950c3fe644bf4a35835092f5e0bd8609adad61d864736f6c634300081e0033","linkReferences":{}},"methodIdentifiers":{"allowance(address,address)":"dd62ed3e","approve(address,uint256)":"095ea7b3","balanceOf(address)":"70a08231","burn(uint256)":"42966c68","decimals()":"313ce567","mint(address,uint256)":"40c10f19","name()":"06fdde03","owner()":"8da5cb5b","renounceOwnership()":"715018a6","symbol()":"95d89b41","totalSupply()":"18160ddd","transfer(address,uint256)":"a9059cbb","transferFrom(address,address,uint256)":"23b872dd","transferOwnership(address)":"f2fde38b"},"id":31}