{"abi":[{"type":"constructor","inputs":[{"name":"_usdtToken","type":"address","internalType":"address"}],"stateMutability":"nonpayable"},{"type":"function","name":"CLAIM_AMOUNT","inputs":[],"outputs":[{"name":"","type":"uint256","internalType":"uint256"}],"stateMutability":"view"},{"type":"function","name":"CLAIM_INTERVAL","inputs":[],"outputs":[{"name":"","type":"uint256","internalType":"uint256"}],"stateMutability":"view"},{"type":"function","name":"canClaim","inputs":[{"name":"user","type":"address","internalType":"address"}],"outputs":[{"name":"","type":"bool","internalType":"bool"}],"stateMutability":"view"},{"type":"function","name":"claimTokens","inputs":[],"outputs":[{"name":"","type":"bool","internalType":"bool"}],"stateMutability":"nonpayable"},{"type":"function","name":"emergencyWithdraw","inputs":[{"name":"amount","type":"uint256","internalType":"uint256"}],"outputs":[],"stateMutability":"nonpayable"},{"type":"function","name":"getClaimAmount","inputs":[],"outputs":[{"name":"","type":"uint256","internalType":"uint256"}],"stateMutability":"pure"},{"type":"function","name":"getFaucetBalance","inputs":[],"outputs":[{"name":"","type":"uint256","internalType":"uint256"}],"stateMutability":"view"},{"type":"function","name":"getNextClaimTime","inputs":[{"name":"user","type":"address","internalType":"address"}],"outputs":[{"name":"","type":"uint256","internalType":"uint256"}],"stateMutability":"view"},{"type":"function","name":"lastClaimTime","inputs":[{"name":"","type":"address","internalType":"address"}],"outputs":[{"name":"","type":"uint256","internalType":"uint256"}],"stateMutability":"view"},{"type":"function","name":"owner","inputs":[],"outputs":[{"name":"","type":"address","internalType":"address"}],"stateMutability":"view"},{"type":"function","name":"refillFaucet","inputs":[{"name":"amount","type":"uint256","internalType":"uint256"}],"outputs":[],"stateMutability":"nonpayable"},{"type":"function","name":"renounceOwnership","inputs":[],"outputs":[],"stateMutability":"nonpayable"},{"type":"function","name":"totalClaims","inputs":[],"outputs":[{"name":"","type":"uint256","internalType":"uint256"}],"stateMutability":"view"},{"type":"function","name":"totalDistributed","inputs":[],"outputs":[{"name":"","type":"uint256","internalType":"uint256"}],"stateMutability":"view"},{"type":"function","name":"transferOwnership","inputs":[{"name":"newOwner","type":"address","internalType":"address"}],"outputs":[],"stateMutability":"nonpayable"},{"type":"function","name":"usdtToken","inputs":[],"outputs":[{"name":"","type":"address","internalType":"contract IERC20"}],"stateMutability":"view"},{"type":"event","name":"FaucetRefilled","inputs":[{"name":"funder","type":"address","indexed":true,"internalType":"address"},{"name":"amount","type":"uint256","indexed":false,"internalType":"uint256"}],"anonymous":false},{"type":"event","name":"OwnershipTransferred","inputs":[{"name":"previousOwner","type":"address","indexed":true,"internalType":"address"},{"name":"newOwner","type":"address","indexed":true,"internalType":"address"}],"anonymous":false},{"type":"event","name":"TokensClaimed","inputs":[{"name":"user","type":"address","indexed":true,"internalType":"address"},{"name":"amount","type":"uint256","indexed":false,"internalType":"uint256"},{"name":"timestamp","type":"uint256","indexed":false,"internalType":"uint256"}],"anonymous":false},{"type":"error","name":"OwnableInvalidOwner","inputs":[{"name":"owner","type":"address","internalType":"address"}]},{"type":"error","name":"OwnableUnauthorizedAccount","inputs":[{"name":"account","type":"address","internalType":"address"}]},{"type":"error","name":"ReentrancyGuardReentrantCall","inputs":[]}],"bytecode":{"object":"0x60a060405234801561000f575f5ffd5b50604051611745380380611745833981810160405281019061003191906102cf565b335f73ffffffffffffffffffffffffffffffffffffffff168173ffffffffffffffffffffffffffffffffffffffff16036100a2575f6040517f1e4fbdf70000000000000000000000000000000000000000000000000000000081526004016100999190610309565b60405180910390fd5b6100b18161017e60201b60201c565b5060016100d06100c561023f60201b60201c565b61026860201b60201c565b5f01819055505f73ffffffffffffffffffffffffffffffffffffffff168173ffffffffffffffffffffffffffffffffffffffff1603610144576040517f08c379a000000000000000000000000000000000000000000000000000000000815260040161013b9061037c565b60405180910390fd5b8073ffffffffffffffffffffffffffffffffffffffff1660808173ffffffffffffffffffffffffffffffffffffffff16815250505061039a565b5f5f5f9054906101000a900473ffffffffffffffffffffffffffffffffffffffff169050815f5f6101000a81548173ffffffffffffffffffffffffffffffffffffffff021916908373ffffffffffffffffffffffffffffffffffffffff1602179055508173ffffffffffffffffffffffffffffffffffffffff168173ffffffffffffffffffffffffffffffffffffffff167f8be0079c531659141344cd1fd0a4f28419497f9722a3daafe3b4186f6b6457e060405160405180910390a35050565b5f7f9b779b17422d0df92223018b32b4d1fa46e071723d6817e2486d003becc55f005f1b905090565b5f819050919050565b5f5ffd5b5f73ffffffffffffffffffffffffffffffffffffffff82169050919050565b5f61029e82610275565b9050919050565b6102ae81610294565b81146102b8575f5ffd5b50565b5f815190506102c9816102a5565b92915050565b5f602082840312156102e4576102e3610271565b5b5f6102f1848285016102bb565b91505092915050565b61030381610294565b82525050565b5f60208201905061031c5f8301846102fa565b92915050565b5f82825260208201905092915050565b7f555344544661756365743a207a65726f206164647265737300000000000000005f82015250565b5f610366601883610322565b915061037182610332565b602082019050919050565b5f6020820190508181035f8301526103938161035a565b9050919050565b6080516113706103d55f395f8181610364015281816104b201528181610644015281816108700152818161099d0152610a8201526113705ff3fe608060405234801561000f575f5ffd5b50600436106100fe575f3560e01c806393c30c0f11610095578063bf3506c111610064578063bf3506c114610276578063efca2eed146102a6578063f1f959a6146102c4578063f2fde38b146102e2576100fe565b806393c30c0f146101dc578063a6e340c61461020c578063a98ad46c14610228578063b77cf9c614610246576100fe565b80635312ea8e116100d15780635312ea8e1461017a57806371127ed214610196578063715018a6146101b45780638da5cb5b146101be576100fe565b8063270ef3851461010257806341c613831461012057806348c54b9d1461013e57806349d3a0c11461015c575b5f5ffd5b61010a6102fe565b6040516101179190610dd3565b60405180910390f35b610128610306565b6040516101359190610dd3565b60405180910390f35b61014661030c565b6040516101539190610e06565b60405180910390f35b6101646105f1565b6040516101719190610dd3565b60405180910390f35b610194600480360381019061018f9190610e4d565b6105f8565b005b61019e610726565b6040516101ab9190610dd3565b60405180910390f35b6101bc610731565b005b6101c6610744565b6040516101d39190610eb7565b60405180910390f35b6101f660048036038101906101f19190610efa565b61076b565b6040516102039190610dd3565b60405180910390f35b61022660048036038101906102219190610e4d565b61082c565b005b61023061099b565b60405161023d9190610f80565b60405180910390f35b610260600480360381019061025b9190610efa565b6109bf565b60405161026d9190610dd3565b60405180910390f35b610290600480360381019061028b9190610efa565b6109d4565b60405161029d9190610e06565b60405180910390f35b6102ae610a79565b6040516102bb9190610dd3565b60405180910390f35b6102cc610a7f565b6040516102d99190610dd3565b60405180910390f35b6102fc60048036038101906102f79190610efa565b610b1d565b005b633b9aca0081565b60025481565b5f610315610ba1565b61031e336109d4565b61035d576040517f08c379a000000000000000000000000000000000000000000000000000000000815260040161035490610ff3565b60405180910390fd5b633b9aca007f000000000000000000000000000000000000000000000000000000000000000073ffffffffffffffffffffffffffffffffffffffff166370a08231306040518263ffffffff1660e01b81526004016103bb9190610eb7565b602060405180830381865afa1580156103d6573d5f5f3e3d5ffd5b505050506040513d601f19601f820116820180604052508101906103fa9190611025565b101561043b576040517f08c379a00000000000000000000000000000000000000000000000000000000081526004016104329061109a565b60405180910390fd5b4260015f3373ffffffffffffffffffffffffffffffffffffffff1673ffffffffffffffffffffffffffffffffffffffff1681526020019081526020015f208190555060025f81548092919061048f906110e5565b9190505550633b9aca0060035f8282546104a9919061112c565b925050819055507f000000000000000000000000000000000000000000000000000000000000000073ffffffffffffffffffffffffffffffffffffffff1663a9059cbb33633b9aca006040518363ffffffff1660e01b815260040161050f92919061115f565b6020604051808303815f875af115801561052b573d5f5f3e3d5ffd5b505050506040513d601f19601f8201168201806040525081019061054f91906111b0565b61058e576040517f08c379a000000000000000000000000000000000000000000000000000000000815260040161058590611225565b60405180910390fd5b3373ffffffffffffffffffffffffffffffffffffffff167f9923b4306c6c030f2bdfbf156517d5983b87e15b96176da122cd4f2effa4ba7b633b9aca00426040516105da929190611243565b60405180910390a2600190506105ee610bc3565b90565b6201518081565b610600610bdd565b5f8111610642576040517f08c379a0000000000000000000000000000000000000000000000000000000008152600401610639906112b4565b60405180910390fd5b7f000000000000000000000000000000000000000000000000000000000000000073ffffffffffffffffffffffffffffffffffffffff1663a9059cbb610686610744565b836040518363ffffffff1660e01b81526004016106a492919061115f565b6020604051808303815f875af11580156106c0573d5f5f3e3d5ffd5b505050506040513d601f19601f820116820180604052508101906106e491906111b0565b610723576040517f08c379a000000000000000000000000000000000000000000000000000000000815260040161071a90611225565b60405180910390fd5b50565b5f633b9aca00905090565b610739610bdd565b6107425f610c64565b565b5f5f5f9054906101000a900473ffffffffffffffffffffffffffffffffffffffff16905090565b5f5f60015f8473ffffffffffffffffffffffffffffffffffffffff1673ffffffffffffffffffffffffffffffffffffffff1681526020019081526020015f2054036107b8575f9050610827565b5f6201518060015f8573ffffffffffffffffffffffffffffffffffffffff1673ffffffffffffffffffffffffffffffffffffffff1681526020019081526020015f2054610805919061112c565b9050804210610817575f915050610827565b428161082391906112d2565b9150505b919050565b5f811161086e576040517f08c379a0000000000000000000000000000000000000000000000000000000008152600401610865906112b4565b60405180910390fd5b7f000000000000000000000000000000000000000000000000000000000000000073ffffffffffffffffffffffffffffffffffffffff166323b872dd3330846040518463ffffffff1660e01b81526004016108cb93929190611305565b6020604051808303815f875af11580156108e7573d5f5f3e3d5ffd5b505050506040513d601f19601f8201168201806040525081019061090b91906111b0565b61094a576040517f08c379a000000000000000000000000000000000000000000000000000000000815260040161094190611225565b60405180910390fd5b3373ffffffffffffffffffffffffffffffffffffffff167f8a609374befb6b58cb150d9bd9aafa56b72315f38a284e3c21c69827fe7102b9826040516109909190610dd3565b60405180910390a250565b7f000000000000000000000000000000000000000000000000000000000000000081565b6001602052805f5260405f205f915090505481565b5f5f60015f8473ffffffffffffffffffffffffffffffffffffffff1673ffffffffffffffffffffffffffffffffffffffff1681526020019081526020015f205403610a225760019050610a74565b6201518060015f8473ffffffffffffffffffffffffffffffffffffffff1673ffffffffffffffffffffffffffffffffffffffff1681526020019081526020015f2054610a6e919061112c565b42101590505b919050565b60035481565b5f7f000000000000000000000000000000000000000000000000000000000000000073ffffffffffffffffffffffffffffffffffffffff166370a08231306040518263ffffffff1660e01b8152600401610ad99190610eb7565b602060405180830381865afa158015610af4573d5f5f3e3d5ffd5b505050506040513d601f19601f82011682018060405250810190610b189190611025565b905090565b610b25610bdd565b5f73ffffffffffffffffffffffffffffffffffffffff168173ffffffffffffffffffffffffffffffffffffffff1603610b95575f6040517f1e4fbdf7000000000000000000000000000000000000000000000000000000008152600401610b8c9190610eb7565b60405180910390fd5b610b9e81610c64565b50565b610ba9610d25565b6002610bbb610bb6610d66565b610d8f565b5f0181905550565b6001610bd5610bd0610d66565b610d8f565b5f0181905550565b610be5610d98565b73ffffffffffffffffffffffffffffffffffffffff16610c03610744565b73ffffffffffffffffffffffffffffffffffffffff1614610c6257610c26610d98565b6040517f118cdaa7000000000000000000000000000000000000000000000000000000008152600401610c599190610eb7565b60405180910390fd5b565b5f5f5f9054906101000a900473ffffffffffffffffffffffffffffffffffffffff169050815f5f6101000a81548173ffffffffffffffffffffffffffffffffffffffff021916908373ffffffffffffffffffffffffffffffffffffffff1602179055508173ffffffffffffffffffffffffffffffffffffffff168173ffffffffffffffffffffffffffffffffffffffff167f8be0079c531659141344cd1fd0a4f28419497f9722a3daafe3b4186f6b6457e060405160405180910390a35050565b610d2d610d9f565b15610d64576040517f3ee5aeb500000000000000000000000000000000000000000000000000000000815260040160405180910390fd5b565b5f7f9b779b17422d0df92223018b32b4d1fa46e071723d6817e2486d003becc55f005f1b905090565b5f819050919050565b5f33905090565b5f6002610db2610dad610d66565b610d8f565b5f015414905090565b5f819050919050565b610dcd81610dbb565b82525050565b5f602082019050610de65f830184610dc4565b92915050565b5f8115159050919050565b610e0081610dec565b82525050565b5f602082019050610e195f830184610df7565b92915050565b5f5ffd5b610e2c81610dbb565b8114610e36575f5ffd5b50565b5f81359050610e4781610e23565b92915050565b5f60208284031215610e6257610e61610e1f565b5b5f610e6f84828501610e39565b91505092915050565b5f73ffffffffffffffffffffffffffffffffffffffff82169050919050565b5f610ea182610e78565b9050919050565b610eb181610e97565b82525050565b5f602082019050610eca5f830184610ea8565b92915050565b610ed981610e97565b8114610ee3575f5ffd5b50565b5f81359050610ef481610ed0565b92915050565b5f60208284031215610f0f57610f0e610e1f565b5b5f610f1c84828501610ee6565b91505092915050565b5f819050919050565b5f610f48610f43610f3e84610e78565b610f25565b610e78565b9050919050565b5f610f5982610f2e565b9050919050565b5f610f6a82610f4f565b9050919050565b610f7a81610f60565b82525050565b5f602082019050610f935f830184610f71565b92915050565b5f82825260208201905092915050565b7f555344544661756365743a20636c61696d20746f6f20736f6f6e0000000000005f82015250565b5f610fdd601a83610f99565b9150610fe882610fa9565b602082019050919050565b5f6020820190508181035f83015261100a81610fd1565b9050919050565b5f8151905061101f81610e23565b92915050565b5f6020828403121561103a57611039610e1f565b5b5f61104784828501611011565b91505092915050565b7f555344544661756365743a20696e73756666696369656e742062616c616e63655f82015250565b5f611084602083610f99565b915061108f82611050565b602082019050919050565b5f6020820190508181035f8301526110b181611078565b9050919050565b7f4e487b71000000000000000000000000000000000000000000000000000000005f52601160045260245ffd5b5f6110ef82610dbb565b91507fffffffffffffffffffffffffffffffffffffffffffffffffffffffffffffffff8203611121576111206110b8565b5b600182019050919050565b5f61113682610dbb565b915061114183610dbb565b9250828201905080821115611159576111586110b8565b5b92915050565b5f6040820190506111725f830185610ea8565b61117f6020830184610dc4565b9392505050565b61118f81610dec565b8114611199575f5ffd5b50565b5f815190506111aa81611186565b92915050565b5f602082840312156111c5576111c4610e1f565b5b5f6111d28482850161119c565b91505092915050565b7f555344544661756365743a207472616e73666572206661696c656400000000005f82015250565b5f61120f601b83610f99565b915061121a826111db565b602082019050919050565b5f6020820190508181035f83015261123c81611203565b9050919050565b5f6040820190506112565f830185610dc4565b6112636020830184610dc4565b9392505050565b7f555344544661756365743a207a65726f20616d6f756e740000000000000000005f82015250565b5f61129e601783610f99565b91506112a98261126a565b602082019050919050565b5f6020820190508181035f8301526112cb81611292565b9050919050565b5f6112dc82610dbb565b91506112e783610dbb565b92508282039050818111156112ff576112fe6110b8565b5b92915050565b5f6060820190506113185f830186610ea8565b6113256020830185610ea8565b6113326040830184610dc4565b94935050505056fea2646970667358221220355f7d638d46ba7df2dfb23d1d6efba3ac2329717b64090abd5946a780e0416564736f6c634300081e0033","linkReferences":{}},"methodIdentifiers":{"CLAIM_AMOUNT()":"270ef385","CLAIM_INTERVAL()":"49d3a0c1","canClaim(address)":"bf3506c1","claimTokens()":"48c54b9d","emergencyWithdraw(uint256)":"5312ea8e","getClaimAmount()":"71127ed2","getFaucetBalance()":"f1f959a6","getNextClaimTime(address)":"93c30c0f","lastClaimTime(address)":"b77cf9c6","owner()":"8da5cb5b","refillFaucet(uint256)":"a6e340c6","renounceOwnership()":"715018a6","totalClaims()":"41c61383","totalDistributed()":"efca2eed","transferOwnership(address)":"f2fde38b","usdtToken()":"a98ad46c"},"id":28}